:100000000C94A3010C94DB010C94DB010C94DB0138
:100010000C94DB010C94DB010C94DB010C94DB01F0
:100020000C94DB010C94DB010C945F1C0C94331DCD
:100030000C9475170C94DB010C94DB010C94DB0120
:100040000C94DB010C94DB010C94DB010C94DB01C0
:100050000C94DB010C94FC170C94DB010C94DB0179
:100060000C94DB010C94DB010C94DB010C94DB01A0
:100070000C94DB010C94DB010C94DB010C94DB0190
:100080000C94DB010C94DB010C94DB010C94DB0180
:100090000C94DB010C94DB010C94DB010C94DB0170
:1000A0000C94DB010C94DB010C94DB0129001E0095
:1000B0001F0020002100220023002400250026002C
:1000C00027002D002E002A0049002B0014001A00E2
:1000D0000800150017001C0018000C001200130087
:1000E0002F00300031004C003900000004001600E1
:1000F000070009000A000B000D000E000F0033007E
:10010000340028004B00E10000001D001B00060029
:100110001900050011001000360037003800E50016
:1001200052004E00E000E700E20000000000000086
:100130002C0000000000E600E400215250005100B5
:100140004F0035003A003B003C003D003E003F00C0
:10015000400041004200430044004500010001000E
:100160000100010001000100010001000100010087
:1001700046004700480001000100010001000100A5
:100180000000010001000100010001000100010068
:100190004A004B00010001000100010001000000C5
:1001A00001000100010001000100010001004D00FB
:1001B0004E000100010001000100010001000100EA
:1001C000000000000000010000000000010001002C
:1001D00001000100010001000A03770064003600FD
:1001E0003600000014033100310063007500730015
:1001F00074006F006D00730000000403090409021D
:100200003B00020100A0FA09040000010301010003
:1002100009211101000122440007058103080001A2
:10022000090401000103000000092111010001225D
:10023000B600070582032000011201000200000041
:1002400008EDFE000001000102000105010902A104
:100250000185020901A100050919012908150025D8
:1002600001950875018102050109300931158125C3
:100270007F95027508810609381581257F950175DE
:10028000088106050C0A38021581257F950175083D
:100290008106C0C005010980A101850319012AB7A3
:1002A00000150126B700950175108100C0050C09E5
:1002B00001A101850419012AA002150126A00295B9
:1002C0000175108100C005010906A1018506050719
:1002D00019E029E715002501950875018102050738
:1002E000190029EF1500250195F075018102050817
:1002F0001901290595057501910295017503910173
:10030000C005010906A101050719E029E715002527
:10031000019508750181029501750881010507198C
:100320000029FF150026FF009506750881000508C5
:100330001901290515002501950575019102950101
:1003400075039101C00011241FBECFEFDAE0DEBFBC
:10035000CDBF04B603FE18C08091CA029091CB02B3
:10036000A091CC02B091CD028730904BA740B04B0A
:1003700059F41092CA021092CB021092CC02109241
:10038000CD02E0E0F8E3099511E0A0E0B1E0E0ED96
:10039000FFE302C005900D92AE39B107D9F722E014
:1003A000AEE9B1E001C01D92AA3CB207E1F70E949C
:1003B00036110C94A71F0C9400008230B8F46530FD
:1003C000A8F44F3098F450E09FE0699F400D511D14
:1003D0001124FA019BE4899FE00DF11D1124EE0F19
:1003E000FF1FE455FF4F85919491089581E090E0BF
:1003F00008950E94DD01089581E008950E94FC01A6
:10040000089581E008950E94FC0108950E9403026E
:10041000089508950E9409020895A6E0B0E0E3E17E
:10042000F2E00C94031F49835A839E833091A50107
:1004300089819A8131111AC03E81332399F0222398
:1004400089F00E94A507182F682F89819A810E9440
:10045000810769817A81812F0E949F0E2696E3E0B1
:100460000C941F1F0E949307182FF3CF0E94A5071B
:1004700069817A81F1CFFC01262F4081518162810F
:100480007381848195810E940D020895CF93DF933B
:10049000EC0161E00E943B02BE010E94FE01DF917F
:1004A000CF910895CF93DF93EC0160E00E943B026F
:1004B000BE010E940A02DF91CF91089581E0089564
:1004C0000E945E020895CF93C82F0E9456068C2F7B
:1004D0000E9460022FEF84E39CE021508040904016
:1004E000E1F700C00000CF91089581E00E9463020F
:1004F0000E942018089580E00E9463020E94441820
:1005000008950F931F93CF93DF938C0161E00E94B6
:100510003B02EC01B8010E940602811106C080E096
:10052000DF91CF911F910F910895B801CE010E94E4
:1005300048158823A1F3B801CE010E9472118823C7
:1005400071F3B801CE010E944811882341F3F801EC
:100550008581882361F0C330FCE7DF07E9F058F4B8
:10056000C115ECE7DE07A9F0C130DC47B9F0C801DE
:100570000E940102D5CFCB358CE7D807A9F0CC3546
:10058000ECE7DE0771F0CA35DC4789F70E94EC0B17
:10059000EECF0E947502C3CF0E94F40B0E947B0233
:1005A000BECF0E94E20BE3CF0E94F00BE0CF0E948F
:1005B00051170E94FE0208950E9402030E945617DE
:1005C0000895089581E008950895CF93DF93D82F7B
:1005D0000E94E202C82F882319F08D2F0E94E402A6
:1005E0008C2FDF91CF9108950895CF93C82F0E944B
:1005F000E1028C2F0E94E502CF91089580E00E94D5
:10060000F50208950E9491150E94F5020895CF9376
:100610000E949115C82F8091A0018C1779F0C0938A
:10062000A0010E94E1176093A1017093A201809341
:10063000A3019093A4018C2F0E94F502CF910895FD
:10064000ADE0B0E0E6E2F3E00C94041F4887598780
:100650006A877B878C879D8791110E94F20A1F828F
:1006600086E0FE013896DE01119601900D928A9582
:10067000E1F78D8181110DC029813A814B815C8127
:100680006D817E818F810E943C0A2D96E2E00C9460
:10069000201FCE0101960E9446028111EDCFF5CFB9
:1006A000FC012481213021F4808191810E94D707AF
:1006B0000895662329F00E94D3120E94B81308956A
:1006C0000E943F13FACFCF93C82F882399F08CEF65
:1006D0008C0F813A88F48C2F0E943116882329F0E0
:1006E0008C2F0E94D1160E94860B8C2F0E94BA1666
:1006F0000E94860BCF91089580E28C0F883048F4D9
:10070000C77081E001C0880FCA95EAF70E94D50A38
:10071000EFCFEBE5EC0FE33040F4F0E0E35BFE4FAE
:10072000808190E00E94C515E5CFE8E5EC0FEB3144
:1007300050F4F0E0EE0FFF1FE95EFE4F80819181E3
:100740000E94EA15D7CF83E38C0F833198F661E0DE
:100750008C2F0E945903CECF882381F19CEF980FF4
:10076000913A28F40E94D1160E94860B089590E2D7
:10077000980F983050F4877091E001C0990F8A95D6
:10078000EAF7892F0E94DB0AEFCF9BE5980F9330A1
:1007900028F490E080E00E94C515089598E5980F30
:1007A0009B3128F490E080E00E94EA15089593E3DD
:1007B000980F933118F460E00E94590308951F9335
:1007C000CF93DF93182FEB010E946303209739F436
:1007D000812F0E94AC03DF91CF911F9108958FE983
:1007E0009FE00197F1F700C000002197EFCF70E084
:1007F00060E0893311F460E570E00E94DF03089542
:10080000882321F00E94D50A0E94860B0895882330
:1008100021F00E94DB0A0E94860B0895B0E0A0E060
:10082000E4E1F4E00C94FD1E6C01D62FC72FFC010F
:100830001581068102950F700E94CB0AE82E88234D
:10084000F9F0E12E1123E1F08C2F807F803461F0EC
:1008500080E28D0F883008F18C2F807E803221F469
:10086000D230D8F00023C9F08091A40282FF15C0D5
:1008700082E00E94B60B0E94CB0A91E0E82EE926A6
:10088000BC2EB2949FE0B922FBE0FB15B8F1EB2D32
:10089000F0E0E755F04E0C94EE1EE12CF1CF0C2F5A
:1008A0000F70C07F11F00295007F112399F0002393
:1008B00059F080E28D0F883010F0D11107C0802FE1
:1008C0000E94D50A0E94860B8D2F5AC0802F0E944D
:1008D000E50AF8CF8D2F0E94AC03002379F080E267
:1008E0008D0F883010F0D11104C0802F0E94DB0AD8
:1008F00003C0802F0E94EB0A0E94860BEB2DE8506C
:10090000FF0B349720F40E9491150E94F502EE200F
:1009100089F00E94C70A80FD0DC0F60115820E9471
:10092000C10A0E94DF06C6010E941D060E94C10A7C
:100930000E94EF06CDB7DEB7E9E00C94191F2C2F0B
:100940002F70F22EC07FC03219F0F29480EFF8229F
:10095000DD2341F0D130D1F1112309F444C000234B
:10096000F1F0B2CF8091A40282FD15C0112359F09D
:10097000FF2029F08F2D0E94D50A0E94860B80E06F
:100980000E946303BBCF80E00E94AC03FF2009F408
:10099000B5CF8F2DABCF112369F0011104C08F2D7E
:1009A0000E940004ABCF013009F0A8CF8F2D0E9428
:1009B000090BA4CF0111A2CF8F2D0E9407048F2D08
:1009C0000E94150B8F2D0E94F90A98CF112321F058
:1009D000063008F093CFE3CF053008F08FCF8F2D8E
:1009E0000E9407048BCF0023D1F3D93349F43FEFA2
:1009F00087EE93E0315080409040E1F700C0000066
:100A00008D2F0E94AC037ACF8C2F869586958370AC
:100A100069F0813009F072CF8D2F9C2F93701111E6
:100A200002C080E090E00E94EA1568CF8D2F9C2FD5
:100A30009370111102C080E090E00E94C5155ECF56
:100A4000612F8D2F0E94590359CF8C2F8370A1F5F0
:100A5000111154CF4D2F429546954770440F440FC6
:100A60002D2F2F7030E0042E02C0220F331F0A9466
:100A7000E2F790E080E0D4FF09C08FE090E002C090
:100A8000880F991F4A95E2F780959095C695C6956F
:100A9000C370822B932BC23049F058F4C13019F047
:100AA0000E94AF062BCF0E94A60628CF0E94B80650
:100AB00025CF0E94A30622CF8695112311F08C2FFB
:100AC0008170882309F41ACF4D2F429546954770BF
:100AD000440F440F2D2F2F7030E0042E02C0220F40
:100AE000331F0A94E2F790E080E0D4FF09C08FE062
:100AF00090E002C0880F991F4A95E2F78095909583
:100B0000C695C695C370822B932BC23049F058F41A
:100B1000C13019F00E941A07F1CE0E941107EECEE3
:100B20000E942307EBCE0E94C706E8CECF701123A8
:100B300029F08C2F0E94DF068D2F32CF8D2F0E943F
:100B400007048C2F0E94EF06D9CED23F41F160F40A
:100B5000D03FB9F0D13F81F0112309F446C0011113
:100B6000B3CE8C2F8F711FC0D33F01F1D43FA1F7BB
:100B70008091A40282FD24C08C2F8F71112311F368
:100B800012C0112341F0053008F0B8CE8C2F8F71C0
:100B90000E940107B3CE063008F0B0CEF7CF8C2FFD
:100BA0008F711111CFCF0E94DF06A8CE112329F03B
:100BB0008C2F8F710E94D306A1CE0E94CE069ECEAE
:100BC000112349F0CF718C2F0E94DF0663E08C2F38
:100BD0000E94980B93CE81E00E94B60B023008F47D
:100BE0008DCE82E00E94B60B89CE002359F0D93316
:100BF00009F006CFEFEFF7EE23E0E150F0402040A0
:100C0000E1F7FCCE8C2F8F719DCF0F931F93CF9365
:100C1000DF93EC01688179818D810E94E2078C016C
:100C20000E942C070E94A206B801CE010E940E0469
:100C3000DF91CF911F910F910895CF93DF93EC0136
:100C40008C81882399F0CE010E948102811111C00C
:100C50000E94CB0A882351F08D81882339F080913E
:100C6000A40282FF03C082E00E94B60BDF91CF9105
:100C70000895CE010E940506CE010E945202F6CFD1
:100C800090E080E00E94C51590E080E00E94EA15A7
:100C90000E94F20A0E94860B0E94D4130E94B8138D
:100CA00008950E94E8160E94400608950E94E20AF4
:100CB0000E945106089592959F70963091F058F4D5
:100CC000925F9F70923058F4803F19F030F4883E64
:100CD00030F481E008959A5FF4CF843FD1F380E04F
:100CE0000895883EB0F3813FD1F7F3CFFC01248112
:100CF000222339F0808191810E94D7070E945B06F0
:100D0000089580E00895A6E0B0E0E9E8F6E00C94EC
:100D1000041F2696E2E00C94201FA7E0B0E0E3E970
:100D2000F6E00C94041F2796E2E00C94201F08952F
:100D30000E94970608950E9498069093D10180938F
:100D4000D001089508950E949B0608952091D00136
:100D50003091D101822B932B0E949B060895209104
:100D6000D0013091D101822393230E949B060895E4
:100D70002091D0013091D101822793270E949B06B8
:100D800008950E94970608950E94C10608950E9442
:100D9000C4069093CF018093CE01089590E080E047
:100DA0000E94C706089521E030E0A90102C0440F67
:100DB000551F8A95E2F7CA010E94C706089521E0EF
:100DC00030E002C0220F331F8A95E2F78091CE01F6
:100DD0009091CF01822B932B0E94C706089521E0AA
:100DE00030E002C0220F331F8A95E2F7209530953C
:100DF0008091CE019091CF01822393230E94C70658
:100E0000089521E030E002C0220F331F8A95E2F7F7
:100E10008091CE019091CF01822793270E94C7062F
:100E200008952091CE013091CF01822B932B0E9407
:100E3000C70608952091CE013091CF0182239323DC
:100E40000E94C70608952091CE013091CF018227DC
:100E500093270E94C70608950895262F277091E0D2
:100E600001C0990F2A95EAF723E0769567952A95B0
:100E7000E1F7660F771F660F771FFA01E60FF71F7E
:100E800050E040E0682F70E08191DF0111979B01F5
:100E9000042E02C0369527950A94E2F72170219519
:100EA0002827292328272C934F5F5F4F4430510573
:100EB00059F70895A82FA77023E0969587952A954E
:100EC000E1F7880F991F880F991FFB01E80FF91FA1
:100ED00050E040E080E0219130E00A2E02C03695DB
:100EE00027950A94E2F721703327042E01C0220FC0
:100EF0000A94EAF7822B4F5F5F4F4430510559F750
:100F00000895262F953070F48F3060F4682F70E0CC
:100F10008FE0989F600D711D112446EA51E0822FE9
:100F20000E942D070895292F953068F48F3058F4CA
:100F300090E066EA71E03FE0239F800D911D11244F
:100F40000E945A07089580E00895B0E0A0E0EBEA1F
:100F5000F7E00C94FD1E7C010091CE011091CF01B1
:100F60008091D0019091D101082B192BCFE0D0E0D6
:100F7000CC24C394D12CBC2EC6010C2E02C0880FE9
:100F8000991F0A94E2F780239123892B49F4219732
:100F900090F7B12C8B2DCDB7DEB7E9E00C94191F7B
:100FA000B7018C2F0E94AB0E019789F3F3CFCF933B
:100FB000DF93EC010E94A507BE010E94AB0EDF91FA
:100FC000CF9108951F93CF93DF93EB019091A501EB
:100FD000992339F0CB010E94D707DF91CF911F9160
:100FE0000895882369F0CB010E94A507182F682F68
:100FF000CE010E948107BE01812F0E94AB0EEDCF72
:10100000CB010E949307182FF6CF1F93CF93DF9346
:10101000C091D20117E08091D3018C1304C0DF91FD
:10102000CF911F910895D0E01C9FF0011D9FF00DFE
:101030001124EC52FE4F2081318142815381648121
:10104000758186810E948D062196C770E4CF20911C
:101050000C0230910D0240910E0250910F026091EE
:10106000100270911102809112020E948D06089563
:10107000CF93DF9380911202807F09F04DC0809161
:101080001102882309F448C0E091D2015091D301A4
:10109000C0910D02D0910C0260910E0270910F026E
:1010A00047E05E17C9F18E2F90E0E49FF001112414
:1010B000EC52FE4F2481222391F1489FF001499F79
:1010C000F00D1124DF01AC52BE4F11962C911197F7
:1010D0002C1325C02C912D1322C015962C911597F9
:1010E00021111DC012962D913C91261B370B283CD7
:1010F0003105A8F4809112028F70806180931202F2
:10110000E652FE4F80818F70806180838CE092E098
:101110000E941D060E940508DF91CF910895FC01F1
:101120003196E770BECF482F2091D2019091D30124
:1011300057E0291302C080E0089530E0529FF0018B
:10114000539FF00D1124EC52FE4F8181681306C0AD
:101150008081481303C085818111EECF2F5F3F4FFF
:101160002770E7CFA4E1B0E0E8EBF8E00C94FA1EBA
:101170008C0186E0F801DE011F9601900D928A95A0
:10118000E1F7F8018481E5809CE0A92E92E0B92E78
:101190009091100291111FC08823D1F0EE20A9F088
:1011A000C8010E947606F82E882379F087E0F801BE
:1011B000D50101900D928A95E1F7C5010E94500377
:1011C0000E9438080E9427085FC0C8010E941D06BF
:1011D000FF24F39459C0C080D18082809380F09026
:1011E000110220910E0230910F02A401421B530BF9
:1011F000FF2009F4F9C0483C510508F0A7C0882336
:1012000009F442C090910D0280911202282F207F94
:1012100009F05CC09D1116C090910C02C91212C059
:10122000E1104EC08F708061809312020E942708E7
:101230008CE092E00E941D0680911202F8018683E4
:10124000F12C22C0E1103CC06D2D8C2D0E94930822
:101250006D2D8C2D0E949308E82E8111F1CFCF8641
:10126000D88A8F8598890E94D707292F22952F70B9
:10127000243078F49F702230A8F09923B9F0F80157
:101280009681907F99F4FE2C8F2D6496ECE00C945F
:10129000161F2A5F2F70223068F0C8010E941D06B9
:1012A000EF2CF1CF992311F0882369F3805E883009
:1012B00050F3F3CF803F38F3815F833070F7E3CF93
:1012C00080911202816080931202BACF9D1113C0E7
:1012D00090910C02C9120FC0E1100DC08683C801A5
:1012E0000E941D0687E0F801ACE0B2E001900D928B
:1012F0008A95E1F767CFC8010E947606882309F432
:1013000064CFEE2009F461CF80911202803288F020
:1013100020910C0230910D02398728879B868A869E
:10132000909110029C871D868E87CE0108960E94A0
:101330001D0687E0F801ACE0B2E001900D928A95BD
:10134000E1F70E9438080E94270842CF90911202CC
:10135000292F207FA1F4682D9A8A898AA6017A898B
:101360009E2D0E9483068CE092E00E941D0687E07D
:10137000F50111928A95E9F70E94270861CF882329
:1013800009F482CF80910D028D1110C080910C0262
:10139000C8120CC0E1100AC09683C8010E941D0645
:1013A00087E0F50111928A95E9F76ECFC8010E9496
:1013B0007606882309F409CFEE2009F406CF809140
:1013C0001202803208F4B5CF20910C0230910D0248
:1013D0003A8329839C828B82909110029D831E8286
:1013E0008F83CE010196A3CF483C5105B8F58823E1
:1013F00009F4EECEFE2CEE2009F4E7CE80910D022A
:101400008D111EC080910C02C8121AC08091120268
:1014100080FD0DC0982F907F51F08683903F09F496
:101420005ECF982F907F905F8F70892B57CF87E08A
:10143000F801ACE0B2E001900D928A95E1F724CF7B
:10144000C8010E947606811174CF809112028160DA
:1014500080931202C8010E941D0616CF682D9A8A39
:10146000898AA6017A899E2D0E94830687E0F5016C
:1014700011928A95E9F7A6CEAEE0B0E0E2E4FAE098
:101480000C94031F288739874A875B876C877D8781
:101490008E87CE0108960E94B2088823B1F06C8531
:1014A000662341F0288539854A855B857D858E8553
:1014B0000E948D0617E08091D2019091D30189138B
:1014C0003DC02E96E3E00C941F1F87E0FE01389686
:1014D000DE01119601900D928A95E1F78C858823A3
:1014E00049F32091D30130E0C90101968770992713
:1014F0004091D2014817190699F097E0929FD001C8
:10150000939FB00D1124AC52BE4FFE013196019055
:101510000D929A95E1F78093D3010E940508CACFF6
:101520000E9456061092D3011092D20187E0ECE09F
:10153000F2E0DF011D928A95E9F7BCCF819FC001DF
:1015400011248C529E4F0E94B208882309F4B9CF0F
:10155000E091D2011E9FF0011124EC52FE4F208138
:101560003181428153816481758186810E948D061B
:101570008091D20190E00196877099278093D201E3
:101580009ACF80913B0286958695869508958091A5
:101590003B028770089590913B02977081E009F4B7
:1015A00080E0089580916702089590916702892BE9
:1015B0008093670208958095909167029823909395
:1015C0006702089510926702089590916602892B30
:1015D0008093660208958095909166029823909377
:1015E0006602089510926602089508950E94F50A11
:1015F000089590913C02292F282331F0809589236A
:1016000080933C020E94F60A089508950E94050BFB
:10161000089590913D02292F2823281729F0982B0F
:1016200090933D020E94060B089590913D02292F50
:10163000282331F08095892380933D020E94060B78
:10164000089580913D02882329F010923D0280E0A8
:101650000E94060B0895CF93C091670280916602A5
:10166000C82B80913D02882331F0C82B0E940F16B1
:1016700081110E94210B8C2FCF910895CF93DF937E
:10168000C0910201D09103010E942B0B8883C0916D
:101690000201D091030148E050E063E372E0CE0123
:1016A0000E943F1F892B59F088E0FE01A3E3B2E0BE
:1016B00001900D928A95E1F7CE010E949E15DF916F
:1016C000CF910895CF93DF93C0910001D091010194
:1016D0000E942B0B8983C0910001D091010140E24F
:1016E00050E063E172E0CE010E943F1F892B59F068
:1016F00080E2FE01A3E1B2E001900D928A95E1F74C
:10170000CE010E94A915DF91CF9108958091160115
:10171000882339F08091A30287FF03C00E94620BE7
:1017200008950E943E0B089508950E94940B089519
:101730009091A40292FF11C098E0899F900111241A
:10174000622B60933B020E94DF0680913B028695EC
:10175000869586950E94950B08950E94DF06089550
:1017600010923B0280E00E94950B089590913B02FD
:101770008095892380933B02282F277069F489176D
:1017800059F09091A40292FF07C0869586958695A0
:101790000E94EF060E94B00B08959091A40292FB64
:1017A000222720F9281769F080FB92F99093A40270
:1017B0008091A3029091A4020E94150C82E00E94E5
:1017C000B60B08958091A40282FB882780F991E0EE
:1017D00089270E94CD0B089581E00E94CD0B0895CA
:1017E00080E00E94CD0B08956FEF7FEF90E080E0E6
:1017F0000E94911F089590E080E00E945D1F21E00B
:10180000863E9E4F09F020E0822F089582E090E00E
:101810000E94551F089583E090E00E94551F08958F
:1018200084E090E00E945D1F0895BC0184E090E098
:101830000E94911F0895AB01BC018FE090E00E94CF
:10184000851F0895AB01BC0183E190E00E94851FD4
:10185000089560E070E0CB010E94220C089560E0E2
:1018600070E0CB010E941B0C0E94290C0895A8E097
:10187000B0E0EDE3FCE00C94041F66EE7EEF90E038
:1018800080E00E94911F60E082E090E00E94731F60
:1018900081E090E09093D1018093D00161E083E0FA
:1018A00090E00E94731F60E074E184E090E00E9489
:1018B000911F60E086E090E00E94731F6FEF87E069
:1018C00090E00E94731F40E050E0BA0188E090E091
:1018D0000E94851F60E084E290E00E94731F60E038
:1018E00087E190E00E94731F60E08CE090E00E942E
:1018F000731F60E08DE090E00E94731F19821A82CE
:101900001B821C821D821E821F82188648E050E0C6
:1019100068E170E0CE0101960E94631F40E050E054
:10192000BA0180E290E00E94851F0E942F0C289649
:10193000E2E00C94201F0E94370C0895682F8EE07F
:1019400090E00E94731F0895A6E0B0E0EAEAFCE090
:101950000C94021F0E94D5178C018091680290910F
:1019600069028017910781F019821A820E94D517A7
:10197000682F49815A81792F80E090E00E942003EE
:1019800010936902009368022696E4E00C941E1FEF
:101990000E94E117609378027093790280937A0233
:1019A00090937B0260937402709375028093760229
:1019B000909377020895089508950E94DB0C08958E
:1019C00008950E94E00C089581EA9FE00E9443116F
:1019D0000E94DC0C0E94DD0C089581E008950E94B5
:1019E000ED0C08950E94ED0C0895089508950E944D
:1019F000F50C0E94F60C08950E94C00F0E94F4029C
:101A000008950E94CC170E949B100E94FC0C0E941B
:101A1000E10C0895A6E0B0E0E0E1FDE00C94F81ED2
:101A20000E94EF0C81110AC00E94A40C0E94F613C0
:101A30000E9407032696EEE00C94141F0E94B1103A
:101A40002AE6822E22E0922E640110E0F601E19057
:101A5000F1906F01812F0E94E60F1F5F153009F48E
:101A60004BC0E816F90691F380917C0281FD0E943B
:101A7000EF0F0E94F20C782E10E066246394812F01
:101A80000E94E60F7C01F401A190B1904F018A15EC
:101A90009B0561F1A826BF2400E0CC24C394D12C7F
:101AA000C5018C219D21892BC1F07720B1F00983DC
:101AB0001A830E94D5179C838B836D8221E0C70116
:101AC0008C219D21892B09F420E049815A816B8169
:101AD0007C818D81922F0E9420030F5FCC0CDD1C36
:101AE0000F30F1F6F4013297F182E0821F5F15307A
:101AF00031F60E94C80C9ACFE816F90609F0B4CF67
:101B000093CF1F93CF93DF930E94B00EEC01C115CA
:101B100080E5D807F0F5C11580E4D80708F09CC02F
:101B2000C03ED10520F5CD3CD10508F082C0C83AB1
:101B3000D10578F4C53AD10508F073C0C130D1059C
:101B400019F1209709F1C430D105F0F4D0E0C0E0DC
:101B50001BC0C33CD105D0F7C85AD0E0CC0FDD1F65
:101B6000C05BDE4F0990D881C02DD4640DC0C11573
:101B700080E2D80708F0D1C0C11581E0D80708F08D
:101B80005AC0C83ED10510F7CE01DF91CF911F9109
:101B90000895C03682E5D80718F5C03482E5D80725
:101BA00008F06BC0C03282E5D80708F05FC0C115ED
:101BB00082E5D80708F497C02C2F2695269580E259
:101BC000289F900111248C2F8370C1E0D0E002C0C7
:101BD000CC0FDD1F8A95E2F7C22BD32BDD68D4CF63
:101BE000C03A82E5D80760F4C03882E5D80708F427
:101BF00059C0CF71D0E0DC2FCC27C46FD06AC4CFDE
:101C0000C03C82E5D80708F462C0C03E82E5D80730
:101C100008F09CCFDC2FCC27CC27DF71C06FD06AB7
:101C2000B3CFC55AD0E0CA57DE4FC881D0E0D064E8
:101C3000ABCFD065A9CF8D2F0E94520F182FCE01A8
:101C400099270E94B00EC12FD0E0DC2FCC27CC27E3
:101C5000DF71C82BD92B98CFCE0199270E94B00EE7
:101C6000CC27DF70C82BD92BD06A8ECFCF71D0E0B4
:101C7000DC2FCC27C16FD06A87CF2C2F26952695D5
:101C8000277080E2289F900111248C2F8370C1E07F
:101C9000D0E002C0CC0FDD1F8A95E2F7C22BD32B18
:101CA000DC6872CF2C2F26952695277080E2289F1E
:101CB000900111248C2F8370C1E0D0E002C0CC0FC2
:101CC000DD1F8A95E2F7C22BD32BDA685DCF8C2F0C
:101CD0008F710E94520FC82FD0E0DC2FCC27CC2769
:101CE000DF71D06251CF8C2F8F710E94520F55E05F
:101CF000D695C7955A95E1F7CF70D0E0DC2FCC2769
:101D0000282F30E084FF05C044E0220F331F4A959E
:101D1000E1F7C22BD32BD06937CF8D2F8F710E9463
:101D2000520F182FCE0199270E94B00EC12FD0E07C
:101D3000DC2FCC27CC27DF71C82BD92BD2CF462F55
:101D4000753030F46F3020F4672F0E94F901089548
:101D500090E080E008950E949F0E0E94810D0895FA
:101D600082389105B9F1B0F48133910509F47DC051
:101D700048F48932910509F46DC08A32910509F45D
:101D80007BC008958533910509F45FC089339105BF
:101D900009F10895833E9105D9F138F4803E91050B
:101DA00029F1823E910579F10895863E9105D9F198
:101DB000873E910509F43EC0843E910541F520918E
:101DC000A40221FF24C08091A30284FD19C087EEE4
:101DD00090E008952091A302237009F05AC0209149
:101DE000A40223FF14C089E290E008952091A30289
:101DF00020FD38C03091A40230FF09C024FF43C049
:101E000090E080E008952091A30222FDF7CF08958D
:101E10002091A30222FD3AC03091A40230FD39C0C6
:101E200024FFF5CFEDCF2091A30223FFF0CF24FDB7
:101E3000E7CFCDCF2091A30223FD2EC03091A40285
:101E400031FFEECF84EE90E008952091A30225FFAC
:101E5000DECFC9CF2091A30225FD21C02091A4028D
:101E600023FFD5CF89E390E0D2CF2091A30226FFB4
:101E7000CECF8AE290E008952091A30226FFC7CF3B
:101E800081E390E0089583EE90E0089582EE90E083
:101E9000089580EE90E0089586EE90E0089585E341
:101EA00090E008959091A30292FF10C041E0282F86
:101EB0002471243009F040E031E0282F28712830C7
:101EC00009F030E0431711F02CE0822793FF10C097
:101ED00041E0282F2471243109F040E031E0282F1F
:101EE0002871283109F030E0431711F02CE08227E7
:101EF0003091A40230FF10C051E0282F2171213011
:101F000009F050E041E0282F2871283009F040E026
:101F1000541711F029E0822731FF10C041E0282F2B
:101F20002171213109F040E031E0282F287128315A
:101F300009F030E0431711F029E0822794FD877EF5
:101F4000089580E008950E94F40B08950E94B11056
:101F50002FEF86E791E0215080409040E1F700C0EC
:101F600000000E94B11080E00E94E60F80FF04C0D4
:101F70000E94A30F0E94201808950E94A60F0895A2
:101F80000E94FB0B811102C00E949B0C0E94060C58
:101F900080937C020E94100C9093A4028093A30271
:101FA0000E94BD0F0E940B0C90E00E94A30680913E
:101FB000CE019091CF010E94C406089508950E9419
:101FC000DE0F089508950E94E20F0895E82FF0E0D3
:101FD000EE0FFF1FE155FD4F808191810895089517
:101FE00080EA8A95F1F7089500C008950E94F00FE5
:101FF0000895F894E82FE295EF70F0E031A1282FD2
:102000002F7081E090E001C0880F2A95EAF7982FA1
:102010009095932391A392A1892B82A378940895FC
:10202000CF93DF93C8E9D1E089918F3F11F00E94EF
:10203000F90F81E0CD39D807B9F7C9E8D1E0899126
:102040008F3F11F00E94F90F81E0C839D807B9F726
:10205000DF91CF910895AF92BF92DF92EF92FF92FE
:102060000F931F93CF93DF938C01D62EC62FD0E012
:10207000CE0188569E4F7C01FC0120812F3F09F440
:102080004DC0F894E22FE295EF70F0E031A12F708F
:1020900081E090E001C0880F2A95EAF7932F982BF2
:1020A00091A392A18095892382A378940E94F40F32
:1020B000E9E8F1E048E951E021E030E0B12CA12C61
:1020C00061916F3FA9F1A62FA295AF70B0E09096F5
:1020D0008C9190E06F7002C0959587956A95E2F7B4
:1020E00080FD26C0C901A82AB92A220F331F4E1726
:1020F0005F0731F7F70180818F3F11F00E94F90FE0
:1021000061E0A114B10409F460E08D2D0E94F60F86
:10211000CC0FDD1FC00FD11FB982A882DF91CF91F4
:102120001F910F91FF90EF90DF90BF90AF900895B7
:1021300090E080E0D8CF0E9410108AE0EFEAF2E051
:10214000DF01982F1D929A95E9F7E5EAF2E0DF01A9
:102150001D928A95E9F785E00E94EC100E94DF0F3E
:102160000895AAE0B0E0E7EBF0E10C94011F8E01C6
:102170000F5F1F4F8AE0F80111928A95E9F7F12C61
:102180006F2DC8010E942B10F394F5E0FF12F8CFD9
:102190004AE050E0B80185EA92E00E943F1F21E04A
:1021A000009709F420E0892B41F08AE0F801A5EAC4
:1021B000B2E001900D928A95E1F745E06FEA72E096
:1021C00085EA92E00E94ED10182F0E94E30F812F04
:1021D0002A96E5E00C941D1F0895B0E0A0E0E3EF1F
:1021E000F0E10C94FE1E6C017B01042FC22F222310
:1021F00079F081E080937F020E94D51790937E0250
:1022000080937D0280E0CDB7DEB7E8E00C941A1F22
:10221000D0917F02DD23B1F380917D0290917E0207
:102220000E94ED17059770F310E0000F111FA80131
:10223000B601C7010E943F1F892B31F0A801B601EA
:10224000C7010E944C1FCD2F10927F028C2FDBCF35
:102250000E94B0190E94010D0E94BD1908950E94AC
:10226000C2190E940A0D0E94DC1908950E946E177F
:102270000E9496190E94E40C0E9428110E942F11BE
:102280000E94F70CFBCF90939F0180939E010895CD
:10229000CF93DF93EB0186319C4711F50E94D20A60
:1022A0009D81992399F08A7A91E009F490E09093C6
:1022B0008002811109C089E20E94BA160E94860B31
:1022C00080E0DF91CF91089585E3F6CF8091800281
:1022D000811104C089E20E94D116F0CF85E3FBCFC3
:1022E00081E0EFCFCF93DF93EC01FB018581882361
:1022F00009F4D2C09E0130572332310508F0B2C034
:102300000E94100C9093A4028093A302FE01E1505E
:10231000F047E232F10520F4EB54F04E0C94EE1E3F
:102320008091A30281608093A30293C08091A40254
:1023300088608093A4028DC08091A3028260F3CF55
:102340008091A3028460EFCF8091A3028860EBCFDD
:102350008091A4028160EDCF8091A4028260E9CFD8
:102360008091A3028061DFCF8091A3028062DBCFE6
:102370008091A3028064D7CF0E9456068091A30269
:102380008068D1CF8091A3028C60CDCF8091A402D0
:102390008360CFCF8091A3028E7FC5CF8091A402AE
:1023A000877FC7CF8091A3028D7FBDCF8091A3028D
:1023B0008B7FB9CF8091A302877FB5CF8091A40294
:1023C0008E7FB7CF8091A4028D7FB3CF8091A3027F
:1023D0008F7EA9CF8091A3028F7DA5CF8091A3028C
:1023E0008F7BA1CF0E9456068091A3028F779BCF4F
:1023F0008091A302837F97CF8091A4028C7F99CF95
:102400008091A30282FB992790F921E0922790FB0B
:1024100082F990FB83F987CF8091A402982F909541
:1024200091708E7F892B90FB81F983CF9091A302CD
:10243000892F8F7B96FF806476CF0E9456069091FD
:10244000A302892F97FB87F980586DCF81E00E9406
:102450009E0C8091A3029091A4020E94150C0E94F0
:10246000560680E0DF91CF91089580E0F0CF909103
:10247000A302892F8F7E94FF806155CF9091A30294
:10248000892F8E7F90FF81604ECF9091A402892F7B
:10249000877F93FF88604DCF81E0E4CF282F35EB15
:1024A0002303C001112497FF04C080589109892F8C
:1024B000089580589F4FFBCF8091870280FF0DC009
:1024C0006091090170E0660F771F6038710570F543
:1024D0006115710569F1862F089581FF07C060912C
:1024E000090184E0689FB0011124EFCF60910901D8
:1024F00082FD0AC0809186028823A9F020910801FC
:1025000060910901821710F088E0ECCF869FC0012E
:10251000112433E0880F991F3A95E1F7622F70E09C
:102520000E94DA1ED2CF68E070E0D5CF8FE7089521
:1025300081E008958091870280FF0CC060910501C1
:1025400070E075956795759567956115710549F109
:10255000862F089581FF06C06091050170E0759592
:102560006795F3CF6091050182FD0BC090918502C4
:102570009923A1F06091040180910501961738F02C
:10258000682F70E06038710500F38FE70895899F28
:10259000C001112470E00E94DA1EF4CF61E070E007
:1025A000D7CF81E0089590918A0220918B02922BDF
:1025B00020918D02922B20918C02922B31F098E089
:1025C0009093860291E0909385028D3C31F40E94B5
:1025D0005C12819580938B0208958E3C19F40E94C1
:1025E0005C12F8CF8F3C31F40E945C12819580938D
:1025F0008A020895803D19F40E945C12F8CF893D4B
:1026000029F40E949A1280938C0208958A3D21F445
:102610000E949A128195F7CF8B3D31F40E949A1255
:10262000819580938D0208958C3D19F40E949A1231
:10263000F8CF9FE2980F983070F4815D990B21E0FC
:1026400030E001C0220F8A95EAF780918902822B3F
:102650008093890208958D3D31F4809187028160D5
:102660008093870208958E3D21F4809187028260D5
:10267000F7CF8F3DB9F7809187028460F1CF409109
:102680008A028D3C59F480918B0287FF0DC0109215
:102690008B0241110BC01092860208C08E3C81F45F
:1026A00080918B0218169CF3442381F080918C0258
:1026B00090918D02892B09F05AC0109285020895DD
:1026C0008F3C49F447FFF0CF10928A0280918B0231
:1026D0008111ECCFE0CF803D19F41416ACF3E4CFB8
:1026E00090918C02893D29F41916F4F610928C020F
:1026F000DBCF8A3D19F497FFD7CFF8CF90918D02A9
:102700008B3D29F497FFD0CF10928D02CDCF8C3D19
:1027100019F41916CCF3C8CF9FE2980F983090F4B3
:10272000815D990B21E030E0B90102C0660F771F8F
:102730008A95E2F7CB018095909189028923809355
:102740008902B2CF8D3D31F4809187028E7F8093D4
:102750008702AACF8E3D21F4809187028D7FF7CF2B
:102760008F3D09F0A1CF809187028B7FF0CF089534
:102770000E94D5179C0190918A0280918B02982B20
:1027800021F0309384022093830290918C028091F7
:102790008D02982B21F0309382022093810288E8E9
:1027A00092E00E94B715089586E0E8E8F2E0DF01C4
:1027B0001D928A95E9F71092860210928502109276
:1027C00087020895FC01828181110EC083818111ED
:1027D0000BC08481811108C091E08581811101C005
:1027E00090E0892F8170089581E0FCCFA6E0B0E0F1
:1027F000ECEFF3E10C94031F86E0E8E8F2E0DE0181
:10280000119601900D928A95E1F710928A0210922A
:102810008B0210928C0210928D028B819C81892BED
:1028200089F080918302909184020E94ED17AC019F
:10283000909186029923C9F180910A0184171506A7
:1028400008F440C08D819E81892B91F08091810296
:10285000909182020E94ED17AC019091850299231C
:1028600009F46AC0809106018417150608F472C045
:10287000BE016F5F7F4F88E892E00E9402178111CE
:1028800005C088E892E00E94E21381110E94B8130B
:1028900086E0FE013196A8E8B2E001900D928A959B
:1028A000E1F72696E3E00C941F1F20910B018AE0CC
:1028B000289F900111242417350720F69F5F9093DD
:1028C000860202C09F3FD1F71B81112359F00E945D
:1028D0005C129FEF11160CF491E0899F802D11245A
:1028E00080938A021C81112359F00E945C129FEF91
:1028F00011160CF491E0899F802D112480938B0296
:1029000080918A02882309F49DCF10918B021123B4
:1029100009F498CF0E944E12882351F080938A02C6
:10292000812F0E944E12882329F080938B028ACF38
:1029300081E0F4CF81E0F9CF209107018AE0289F60
:10294000900111242417350708F092CF9F5F9093D0
:10295000850202C09F3FD1F71D81112359F00E94CB
:102960009A129FEF11160CF491E0899F802D11248B
:1029700080938C021E81112359F00E949A129FEFBE
:1029800011160CF491E0899F802D112480938D0203
:1029900080918C02882309F46BCF10918D02112352
:1029A00009F466CF0E944E12882351F080938C0266
:1029B000812F0E944E12882329F080938D0258CFD8
:1029C00081E0F4CF81E0F9CF0F931F93CF93DF9392
:1029D000C42FD22FFC0185818823C9F04093900237
:1029E0000E94D51790938F0280938E0280E28C0F05
:1029F000883040F4C77081E001C0880FCA95EAF7BB
:102A00000E940004DF91CF911F910F9108951091C2
:102A10009002141332C080918E0290918F020E9416
:102A2000ED17883C910548F5C0E2CD0F1D17B9F0B0
:102A300080E2810F883040F4177081E001C0880F78
:102A40001A95EAF70E940704C83048F481E09D2FE8
:102A5000977001C0880F9A95EAF70E940004802FB2
:102A60000E94F703C83070F6D77081E001C0880F6C
:102A7000DA95EAF70E940704C5CF80E28C0F883010
:102A800008F6C77081E001C0880FCA95EAF7F2CF57
:102A90000F93DB0188519C4787309105A0F5FC011D
:102AA000E952F04E0C94EE1E06E221EE41EE6AE190
:102AB0007CE7CD010E94E41480E00F91089507E2C5
:102AC00025EE45EE6BE17CE7F4CF06E221EE40EE29
:102AD00068E17CE7EECF07E225EE44EE69E17CE7B2
:102AE000E8CF06E221EE42EE6CE17CE7E2CF07E2BE
:102AF00025EE46EE6DE17CE7DCCF08E221E045EE15
:102B00006EE17CE7D6CF15968C91882319F0109250
:102B10009002D3CF81E0D1CF90939602809395021B
:102B20000895E0919502F0919602309729F0019076
:102B3000F081E02D0995089580E00895E0919502D7
:102B4000F0919602309721F00280F381E02D0995F3
:102B50000895E0919502F0919602309739F026E0C1
:102B6000DC012C930480F581E02D09950895E09116
:102B70009502F0919602309739F022E0DC012C9317
:102B80000680F781E02D09950895A3E0B0E0EBEC15
:102B9000F5E10C94041F20919302309194022817C0
:102BA0003907A1F09093940280939302E0919502EB
:102BB000F0919602309751F023E029839B838A831A
:102BC0000084F185E02DCE01019609952396E2E07F
:102BD0000C94201FA3E0B0E0E0EFF5E10C94041F9B
:102BE000209191023091920228173907A1F0909319
:102BF000920280939102E0919502F09196023097B3
:102C000051F024E029839B838A830084F185E02DA1
:102C1000CE01019609952396E2E00C94201F2091A5
:102C20000201309103012E5F3F4F809116018823EE
:102C300079F08091A30287FF0BC0209100013091B1
:102C400001012E5F3F4F9EE180E0915018F40895FE
:102C500096E0FACFF90141919F014423B1F38F5FD0
:102C6000F4CF882321F190911601992311F19091CD
:102C7000A30297FF1EC0E82FE695E695E695EE3194
:102C8000B0F42091000130910101E20FF32FF11D0A
:102C9000228130E0877041E050E002C0440F551FB0
:102CA0008A95E2F72423352381E0232B91F480E0F9
:102CB00008952091020130910301F9013296285FB5
:102CC0003F4F9191981721F0E217F307D1F7EFCF1B
:102CD00081E008959C01FC0132969FEF80E04191D4
:102CE000461751F09F3F19F4411101C0982F8F5F93
:102CF0008630A9F79F3F09F40895290F311D97FDEC
:102D00003A95F90162830895FC0132960896219163
:102D1000261303C0DF0111971C92E817F907B9F7D2
:102D20000895E62FE695E695E695EE3168F4E80F0E
:102D3000F92FF11D677021E030E001C0220F6A9584
:102D4000EAF78281822B82830895E62FE695E69545
:102D5000E695EE3170F4E80FF92FF11D677021E070
:102D600030E001C0220F6A95EAF72095828128237E
:102D700022830895682F80911601882359F080914D
:102D8000A30287FF07C080910001909101010E947A
:102D90009116089580910201909103010E946A1694
:102DA0000895682F80911601882359F08091A3021D
:102DB00087FF07C080910001909101010E94A51634
:102DC000089580910201909103010E948416089554
:102DD00080911601882379F08091A30287FF0BC0B0
:102DE000E0910001F091010132968EE1DF011D9228
:102DF0008A95E9F70895E0910201F0910301329676
:102E000086E0F4CFDC01FB0111969C911197818142
:102E1000981322C012968C911297882319F09281F0
:102E200089131AC013968C911397882319F09381F4
:102E3000891312C015968C911597882319F09581E6
:102E400089130AC014969C91992321F081E0248172
:102E5000291303C080E001C081E0817008950895C6
:102E60000E942F170895811106C081E08093970278
:102E70000E943017089582E0F9CF83E08093970293
:102E80000E94301708950E943317089581E08093BF
:102E900097020E94301708950E94461708950895DA
:102EA00008950E9450170895089508950E944F179D
:102EB0000895CF930E9454170E94B1100E94551795
:102EC000C0E08C2F0E94E60F892B31F4CF5FC53014
:102ED000C1F780E0CF91089581E0FCCF85B780688D
:102EE00085BF85B7806885BF08951F921FB61F9262
:102EF00011248F939F93AF93BF9380919802811178
:102F000013C08091B9029091BA02A091BB02B09116
:102F1000BC024196A11DB11D8093B9029093BA02E3
:102F2000A093BB02B093BC02BF91AF919F918F91D0
:102F30001F901FBE1F9018958091C102843031F1FF
:102F40000E94D7021092980288E190E020E40FB628
:102F5000F894A895809360000FBE2093600083B71B
:102F6000817F846083BF83B7816083BF78948895B5
:102F700083B78E7F83BF0FB6F894A89580916000C9
:102F8000886180936000109260000FBE08950E94D7
:102F900056060E94DC02089582E084BD93E095BD50
:102FA0009AEF97BD80936E0008952FB7F8948091A3
:102FB000B9029091BA02A091BB02B091BC022FBF9E
:102FC00008952FB7F8946091B9027091BA02809178
:102FD000BB029091BC022FBF08959C014FB7F8949B
:102FE0008091B9029091BA02A091BB02B091BC024B
:102FF0004FBF821B930B089578941F921FB61F92A8
:1030000011248F939F93AF93BF938091B9029091B6
:10301000BA02A091BB02B091BC020196A11DB11DE4
:103020008093B9029093BA02A093BB02B093BC0202
:10303000BF91AF919F918F911F901FBE1F901895C8
:1030400081E08093E00080E28093D8001092C90074
:103050008FE19EE40197F1F700C0000087E090EB5C
:10306000DC018093CA029093CB02A093CC02B09370
:10307000CD0288E19CE00FB6F894A895809360009B
:103080000FBE90936000FFCF88E19CE00FB6F894EC
:10309000A895809360000FBE90936000FFCF809151
:1030A000A10208959B01BA019091C1029430E9F404
:1030B0008F708093E9009FEF8091E800915085FD2B
:1030C00006C085ED8A95F1F700009111F5CF80914A
:1030D000E80085FF0AC050E040E0C9010E94531A91
:1030E0008091E8008E778093E800089543E050E0F7
:1030F000BC0182E00E945218089546E050E0BC01F5
:1031000082E00E945218089540E250E0BC0182E043
:103110000E9452180895CF93DF93EC0148E050E0ED
:10312000BC0181E00E94521888E0FE01A9E9B2E0EA
:1031300001900D928A95E1F7DF91CF9108958091EA
:10314000C002811109C00E94E31B0E94401C8091B3
:10315000E20084608093E20008951092C002089516
:103160000E94461708956091BD0281E0611101C07F
:1031700080E00E943D1708959091C10281E0943053
:1031800009F080E06091BD020E944317089542E07B
:1031900061EC81E00E945F1B42E261EC82E00E94F0
:1031A0005F1B9091C10281E0943009F080E0609152
:1031B000BD020E94331708958091C302833009F441
:1031C00061C030F48130D1F1823009F49EC008959D
:1031D0008A3009F48AC08B3009F46FC0893009F055
:1031E00050C08091C202813209F04BC08091C6026A
:1031F0009091C702029708F044C08091E800877F51
:103200008093E8008091E80082FF37C09091F3003E
:103210008091F200029731F48091F100813011F039
:10322000863021F48091F1008093A1028091E80022
:103230008B778093E8000E94931B23C08091C20289
:10324000813AF9F48091E800877F8093E8008091CB
:10325000C6029091C702892B61F468E089E992E087
:1032600070E00E94A21A8091E8008B778093E800BA
:10327000089560E090E080E0F3CF8091C102811179
:10328000C1CF08958091C202813AD9F78091C602D8
:103290009091C702892BA9F78091E800877F8093DE
:1032A000E8008091E80080FFFCCF809116018093B8
:1032B000F1008091E8008E77BCCF8091C20281320C
:1032C00001F78091C6029091C702892BD1F68091B7
:1032D000E800877F8093E8000E94931B8091C402DE
:1032E000809316010E94560608958091C202813291
:1032F00041F68091E800877F8093E8000E94931B4D
:103300008091C5028093A20208958091C202813A01
:1033100009F0B7CF8091E800877F8093E800809123
:10332000E80080FFFCCF8091A202C1CF84B7877FE5
:1033300084BF0FB6F894A89580916000886180934F
:103340006000109260000FBE80E890E00FB6F89425
:1033500080936100909361000FBE0E944C17089506
:103360000E94E31B0E94401CE2EEF0E0808184603A
:10337000808378940E94BF1E08958CE091E00E94A3
:103380008C1508958091C102853031F48091C1027D
:10339000853019F00E94C71708950E949C178091EC
:1033A000BF02882399F30E945917882379F30E945A
:1033B0003D1A0E945606EACF08959A014091C8022C
:1033C0005091C9020E94E5190895492F55274330AD
:1033D000510519F168F44130510509F444C04230F7
:1033E000510509F445C090E080E050E040E025C080
:1033F0004132510549F142325105A9F784E490E088
:1034000041E053E061157105C1F086EB90E04BE4BB
:1034100052E06130710589F0E6CF9927813091053E
:1034200081F0009729F00297F1F6E8EDF1E002C093
:10343000EAEFF1E0849190E0AF01F901518340831C
:103440000895E4EEF1E0F6CF89E090E040E152E04B
:103450006115710591F389E090E049E252E0613035
:10346000710559F3C0CF82E190E049E352E0E5CF26
:103470008BE390E04EEF51E0E0CF80E189BD82E147
:1034800089BD09B400FEFDCF8091D8008F7D809367
:10349000D8008091E00082608093E0008091E0009D
:1034A00081FDFCCF0895AF92BF92CF92DF92FF9241
:1034B0000F931F93CF93DF936C01EB018A010E945E
:1034C000B21BF82E811123C00115110539F0F80146
:1034D00080819181C81BD90BC80ED91EB12CA12C9B
:1034E0002097A9F08091E80085FD22C08091E80036
:1034F0008E778093E80001151105A1F0F801808115
:103500009181A80EB91EB182A08285E0F82E8F2D80
:10351000DF91CF911F910F91FF90DF90CF90BF90DF
:10352000AF9008950E94B21B8823D1F2F82EEFCFFE
:10353000F60181916F018093F1002197FFEFAF1A9F
:10354000BF0ACECFFC018091C8029091C9028617B4
:103550009707A0F06115710529F49091E8009E7716
:103560009093E80090E06115710551F4911108C045
:103570008091E80082FF34C080E00895BC01F2CF62
:103580008091C1028823C1F18530C1F18091E800AA
:1035900083FD30C08091E80082FDEACF8091E80091
:1035A00080FFE1CF8091F3002091F200382F611568
:1035B000710519F02830310558F091E028303105B7
:1035C00009F090E02091E8002E772093E800CBCF1F
:1035D00081918093F100615071092F5F3F4FE7CFD8
:1035E0008091C102882341F0853041F08091E8004C
:1035F00083FFBECF81E0089582E0089583E00895BF
:10360000FC018091C8029091C90286179707A0F02B
:103610006115710529F48091E8008E778093E800A8
:1036200090E06115710551F4911108C08091E80096
:1036300082FF35C080E00895BC01F2CF8091C102C5
:103640008823C9F18530C9F18091E80083FD31C03C
:103650008091E80082FDEACF8091E80080FFE1CF11
:103660008091F3002091F200382F6115710519F057
:103670002830310558F091E02830310509F090E00C
:103680008091E8008E778093E800CBCF849180937F
:10369000F1003196615071092F5F3F4FE6CF809165
:1036A000C102882341F0853041F08091E80083FF1A
:1036B000BDCF81E0089582E0089583E00895982FBA
:1036C000973028F08F708093E90081E008959093FF
:1036D000E900242F762F50E0981731F07091EC001C
:1036E0002091ED005091F00021FD02C09F5FE8CFD6
:1036F0003091EB003E7F3093EB003091ED003D7F49
:103700003093ED003091EB0031603093EB0070931B
:10371000EC002093ED005093F0002091EE0027FD87
:10372000E5CF80E008958091C20287FF13C08091A9
:10373000E80082FF06C08091E8008B778093E80064
:1037400004C08091C1028111F2CF08958091C1021D
:103750008823D9F38091E80080FFF8CF8091E800BA
:103760008E77ECCF2091E4003091E50095E6A90139
:103770002091EC00822F817020FF06C08091E8002C
:1037800080FF06C080E008952091E80022FD1AC065
:103790008091C102882389F0853089F08091EB0007
:1037A00085FD0FC02091E4003091E50042175307DA
:1037B000F9F29150E1F684E0089582E0089583E003
:1037C000089581E008950E94521C0E945A1CE0EE68
:1037D000F0E0808181608083E8EDF0E080818F7788
:1037E000808319BCA7EDB0E08C918E7F8C93808193
:1037F0008F7E80831092C00208950F931F93CF9302
:10380000DF930E94521C0E945A1CC8EDD0E08881B0
:103810008F77888388818068888388818F7D88837B
:1038200019BC1092C1021092BD021092BF021092F8
:10383000BE0200EE10E0F80180818B7F80838881DA
:103840008160888342E060E080E00E945F1BE1EEDF
:10385000F0E080818E7F8083E2EEF0E08081816005
:103860008083808188608083F80180818E7F80835F
:10387000888180618883DF91CF911F910F91089596
:10388000E8EDF0E080818F7E8083E7EDF0E08081DD
:103890008160808384E082BF81E08093C0020E94C7
:1038A000FD1B0895E8EDF0E080818E7F808310920B
:1038B000E20008951092DA001092E10008951F923C
:1038C0000F920FB60F9211242F933F934F935F9354
:1038D0006F937F938F939F93AF93BF93EF93FF93D8
:1038E0008091E10082FF0BC08091E20082FF07C05F
:1038F0008091E1008B7F8093E1000E94BE1E809149
:10390000DA0080FF19C08091D80080FF15C0809137
:10391000DA008E7F8093DA008091D90080FF96C014
:1039200080E189BD82E189BD09B400FEFDCF81E05F
:103930008093C1020E949F188091E10080FF19C00E
:103940008091E20080FF15C08091E2008E7F80931D
:10395000E2008091E20080618093E2008091D800D3
:1039600080628093D80019BC85E08093C1020E94D8
:10397000B3188091E10084FF2BC08091E20084FFA6
:1039800027C080E189BD82E189BD89B5982F9170FA
:1039900080FFFBCF8091D8008F7D8093D8008091ED
:1039A000E1008F7E8093E1008091E2008F7E809322
:1039B000E2008091E20081608093E2008091BD028C
:1039C000882309F449C084E08093C1020E94BC1896
:1039D0008091E10083FF29C08091E20083FF25C030
:1039E0008091E100877F8093E10082E08093C102B3
:1039F0001092BD028091E1008E7F8093E100809162
:103A0000E2008E7F8093E2008091E20080618093EB
:103A1000E20042E060E080E00E945F1B8091F000E5
:103A200088608093F0000E94B018FF91EF91BF91E1
:103A3000AF919F918F917F916F915F914F913F9146
:103A40002F910F900FBE0F901F90189519BC1092D8
:103A5000C1020E94AD1870CF8091E30087FD93E012
:103A60009093C102B3CF1F920F920FB60F92112401
:103A70002F933F934F935F936F937F938F939F9376
:103A8000AF93BF93CF93DF93EF93FF93D091E90070
:103A9000DF708091EC00C82FC17080FDC0E81092EB
:103AA000E9008091F000877F8093F00078940E9475
:103AB000771D1092E9008091F00088608093F000FB
:103AC000CD2BCF70C093E900FF91EF91DF91CF91A3
:103AD000BF91AF919F918F917F916F915F914F9126
:103AE0003F912F910F900FBE0F901F901895AAE253
:103AF000B0E0EDE7FDE10C94031F82EC92E0209131
:103B0000F100FC012193CF01F2E08A3C9F07B9F755
:103B10000E94DC188091E80083FF1EC18091C202E0
:103B20009091C3029A3008F017C1E92FF0E0E252F9
:103B3000F04E0C94EE1E803899F0823809F00CC1DA
:103B40008091C6028F70873008F006C18093E9002B
:103B50008091EB0085FB882780F91092E90006C070
:103B60008091BE029091BF02911182609091E80015
:103B7000977F9093E8008093F1001092F10080917C
:103B8000E8008E77E5C0882309F4D3C0823009F0BD
:103B9000E3C08091C4028111D6C08091C6028F70AB
:103BA0002FEF280F263008F0D7C08093E90020912E
:103BB000EB0020FFC8C0933031F48091EB008062AD
:103BC0008093EB00C0C09091EB0090619093EB006C
:103BD00021E030E001C0220F8A95EAF72093EA0045
:103BE0001092EA008091EB008860EACF8111B4C0A6
:103BF0001091C4021F778091E3008078812B80931D
:103C0000E3008091E800877F8093E8000E94931B87
:103C10008091E80080FFFCCF8091E3008068809372
:103C2000E30082E0111183E08093C10295C08058C7
:103C3000823008F091C08091C4029091C5028C3D01
:103C400023E09207A1F583E08A838AE289834FB754
:103C5000F894DE01139620E03EE051E2E32FF0E01D
:103C600050935700E49120FF03C0E295EF703F5F4F
:103C7000EF708E2F90E0EA30C0F0C7968D939D9341
:103C80002F5F243159F74FBF8091E800877F8093E1
:103C9000E8006AE270E0CE0101960E94A21A8091CB
:103CA000E8008B778093E80057C0C096E7CF60911B
:103CB000C6027091C702AE014F5F5F4F0E94DD19CF
:103CC000BC01892B09F448C09091E800977F90933C
:103CD000E80089819A810E94001BE1CF8038E1F5DC
:103CE0008091E800877F8093E8008091BD028093F7
:103CF000F10045CF811130C09091C402923060F53F
:103D00008091E800877F8093E8009093BD020E9435
:103D1000931B8091BD02882311F084E005C080913F
:103D2000E30087FDFACF81E08093C1020E94C718AB
:103D300013C08091C402813079F481E0933009F09E
:103D400080E08093BF021092E9008091E800877FB5
:103D50008093E8000E94931B8091E80083FF0AC0D3
:103D60008091E800877F8093E8008091EB0080627B
:103D70008093EB00AA96E3E00C941F1F0895CF9365
:103D80008091C1028823A1F0C091E900CF70909189
:103D9000EC00892F817090FD80E8C82B1092E9001B
:103DA0008091E80083FD0E94771DCF70C093E900E9
:103DB000CF91089597FB072E16F4009407D077FD56
:103DC00009D00E942B1F07FC05D03EF490958195E9
:103DD0009F4F0895709561957F4F0895EE0FFF1FD7
:103DE0000590F491E02D09942F923F924F925F92AB
:103DF0006F927F928F929F92AF92BF92CF92DF92FB
:103E0000EF92FF920F931F93CF93DF93CDB7DEB75F
:103E1000CA1BDB0B0FB6F894DEBF0FBECDBF0994F3
:103E20002A88398848885F846E847D848C849B844A
:103E3000AA84B984C884DF80EE80FD800C811B8158
:103E4000AA81B981CE0FD11D0FB6F894DEBF0FBE87
:103E5000CDBFED010895AA1BBB1B51E107C0AA1FEE
:103E6000BB1FA617B70710F0A61BB70B881F991F1B
:103E70005A95A9F780959095BC01CD010895FB0155
:103E8000DC0104C08D910190801921F44150504013
:103E9000C8F7881B990B0895FB01DC0102C0019053
:103EA0000D9241505040D8F70895F999FECF92BD38
:103EB00081BDF89A992780B50895A8E1B0E042E065
:103EC00050E00C94991FDC01A40FB51F41505040E5
:103ED00048F0CB01840F951F2E910E94741F415012
:103EE0005040D0F70895262FF999FECF92BD81BD9D
:103EF000F89A019700B4021639F01FBA20BD0FB628
:103F0000F894FA9AF99A0FBE08950396272F0E9403
:103F1000741F0E94731F252F0E94741F242F0C945E
:103F2000741F0196272F0E94741F0C94731FDC01CD
:103F3000CB01FC01F999FECF06C0F2BDE1BDF89AB4
:103F4000319600B40D9241505040B8F70895F8945E
:103F5000FFCF4F044F049F049F04040520057E04F7
:103F60007E0425059605A505A505CA113E12D211A8
:103F70009C11A011D611A411DA11E611B01137125B
:103F8000B411EA11B811EE111612BC11F2111D1282
:103F9000C211F8110012A811DE11AC11E211C61104
:103FA000FC110C12261235129611CE114512651510
:103FB0006B1554155F15711577157D159B1DC31D68
:103FC000AC1EC31DAC1EF61D171EAC1E6E1E7A1E47
:103FD0003E025E02280850011E0A14014F188B1879
:103FE00084187D18761801E200E900EA00B500B6F1
:103FF00000B700CD008301CC008A01920194012119
:1040000002230224022502260227022A02B300B458
:10401000006F0070009F01CB019F02A0028182838C
:10402000E200E900EA00B500B600B700CD00830168
:10403000CC008A019201940121022302240225026C
:10404000260227022A02B300B4006F0070009F010D
:10405000CB019F02A0028182839496973435366704
:0E40600066F7F6F5F4F1F0C691929395900094
:00000001FF
