:100000000C94A3010C94DB010C94DB010C94DB0138
:100010000C94DB010C94DB010C94DB010C94DB01F0
:100020000C94DB010C94DB010C940F1C0C94E31C6E
:100030000C941C170C94DB010C94DB010C94DB0179
:100040000C94DB010C94DB010C94DB010C94DB01C0
:100050000C94DB010C94A3170C94DB010C94DB01D2
:100060000C94DB010C94DB010C94DB010C94DB01A0
:100070000C94DB010C94DB010C94DB010C94DB0190
:100080000C94DB010C94DB010C94DB010C94DB0180
:100090000C94DB010C94DB010C94DB010C94DB0170
:1000A0000C94DB010C94DB010C94DB0129001E0095
:1000B0001F0020002100220023002400250026002C
:1000C00027002D002E002A0049002B0014001A00E2
:1000D0000800150017001C0018000C001200130087
:1000E0002F00300031004C003900000004001600E1
:1000F000070009000A000B000D000E000F0033007E
:10010000340028004B00E10000001D001B00060029
:100110001900050011001000360037003800E50016
:1001200052004E00E000E300E2000000000000008A
:100130002C0000000000E600E400215250005100B5
:100140004F0035023A003B003C003D003E003F00BE
:10015000400041004200430044004500010001000E
:100160000100010001000100010001000100010087
:1001700046004700480001000100010001000100A5
:100180000000010001000100010001000100010068
:100190004A004B00010001000100010001000000C5
:1001A00001000100010001000100010001004D00FB
:1001B0004E000100010001000100010001000100EA
:1001C000000000000000010000000000010001002C
:1001D00001000100010001000A03770064003600FD
:1001E0003600000014033100310063007500730015
:1001F00074006F006D00730000000403090409021D
:100200003B00020100A0FA09040000010301010003
:1002100009211101000122440007058103080001A2
:10022000090401000103000000092111010001225D
:10023000B600070582032000011201000200000041
:1002400008EDFE000000010102000105010902A104
:100250000185020901A100050919012908150025D8
:1002600001950875018102050109300931158125C3
:100270007F95027508810609381581257F950175DE
:10028000088106050C0A38021581257F950175083D
:100290008106C0C005010980A101850319012AB7A3
:1002A00000150126B700950175108100C0050C09E5
:1002B00001A101850419012AA002150126A00295B9
:1002C0000175108100C005010906A1018506050719
:1002D00019E029E715002501950875018102050738
:1002E000190029EF1500250195F075018102050817
:1002F0001901290595057501910295017503910173
:10030000C005010906A101050719E029E715002527
:10031000019508750181029501750881010507198C
:100320000029FF150026FF009506750881000508C5
:100330001901290515002501950575019102950101
:1003400075039101C00011241FBECFEFDAE0DEBFBC
:10035000CDBF04B603FE18C08091CE029091CF02AB
:10036000A091D002B091D1028730904BA740B04B02
:1003700059F41092CE021092CF021092D002109235
:10038000D102E0E0F8E3099511E0A0E0B1E0E0E39C
:10039000FFE302C005900D92AA39B107D9F722E018
:1003A000AAE9B1E001C01D92AE3CB207E1F70E949C
:1003B0001F110C94571F0C9400008230B8F4653064
:1003C000A8F44F3098F450E09FE0699F400D511D14
:1003D0001124FA019BE4899FE00DF11D1124EE0F19
:1003E000FF1FE455FF4F85919491089581E090E0BF
:1003F00008950E94DD01089581E008950E94FC01A6
:10040000089581E008950E94FC0108950E9403026E
:10041000089508950E9409020895A6E0B0E0E3E17E
:10042000F2E00C94B31E49835A839E833091A1015C
:1004300089819A8131111AC03E81332399F0222398
:1004400089F00E949D07182F682F89819A810E9448
:10045000790769817A81812F0E94840E2696E3E0D4
:100460000C94CF1E0E948B07182FF3CF0E949D077C
:1004700069817A81F1CFFC01262F4081518162810F
:100480007381848195810E940D020895CF93DF933B
:10049000EC0161E00E943B02BE010E94FE01DF917F
:1004A000CF910895CF93DF93EC0160E00E943B026F
:1004B000BE010E940A02DF91CF91089508950E9423
:1004C0004E060E945E022FEF84E39CE021508040A4
:1004D0009040E1F700C0000008950E945F020E9472
:1004E000C71708950E945F020E94EB1708950F93AB
:1004F0001F93CF93DF938C0161E00E943B02EC01DC
:10050000B8010E940602811106C080E0DF91CF9100
:100510001F910F910895B801CE010E941F158823E5
:10052000A1F3B801CE010E94B513882371F3B8017D
:10053000CE010E949114882341F3F801858188231C
:1005400061F0C330FCE7DF07E9F058F4C115ECE7D0
:10055000DE07A9F0C130DC47B9F0C8010E940102F2
:10056000D5CFCB358CE7D807A9F0CC35ECE7DE0743
:1005700071F0CA35DC4789F70E94D30BEECF0E9499
:100580006D02C3CF0E94DB0B0E947202BECF0E949D
:10059000C90BE3CF0E94D70BE0CF0E94F8160E9450
:1005A000F40208950E94F8020E94FD16089508952D
:1005B00081E008950895CF93DF93D82F0E94D80249
:1005C000C82F882319F08D2F0E94DA028C2FDF911B
:1005D000CF9108950895CF93C82F0E94D7028C2FF2
:1005E0000E94DB02CF91089580E00E94EB02089503
:1005F0000E9468150E94EB020895CF930E9468152F
:10060000C82F80919C018C1779F0C0939C010E94A7
:10061000881760939D0170939E0180939F01909332
:10062000A0018C2F0E94EB02CF910895ADE0B0E0C5
:10063000ECE1F3E00C94B41E488759876A877B8706
:100640008C879D8791110E94010B1F8286E0FE011D
:100650003896DE01119601900D928A95E1F78D8111
:1006600081110DC029813A814B815C816D817E8130
:100670008F810E94340A2D96E2E00C94D01ECE01A8
:1006800001960E9446028111EDCFF5CFFC01248135
:10069000213021F4808191810E94CF070895662343
:1006A00029F00E94B6110E94891208950E9410122A
:1006B000FACFCF93C82F8823B9F08CEF8C0F813AF3
:1006C000A8F46C2F80910001909101010E94FB150C
:1006D000882329F08C2F0E94C10A0E943A0B8C2F8C
:1006E0000E94B90A0E943A0BCF91089580E28C0FC4
:1006F000883048F4C77081E001C0880FCA95EAF7D6
:100700000E94E40AEFCFEBE5EC0FE33040F4F0E0B9
:10071000E75BFE4F808190E00E949D15E5CFE8E504
:10072000EC0FEB3150F4F0E0EE0FFF1FED5EFE4FEB
:10073000808191810E94C215D7CF83E38C0F8331D2
:1007400098F661E08C2F0E944F03CECF882381F171
:100750009CEF980F913A28F40E94C10A0E943A0B2C
:10076000089590E2980F983050F4877091E001C09E
:10077000990F8A95EAF7892F0E94EA0AEFCF9BE545
:10078000980F933028F490E080E00E949D15089522
:1007900098E5980F9B3128F490E080E00E94C21504
:1007A000089593E3980F933118F460E00E944F038B
:1007B00008951F93CF93DF93182FEB010E945903E5
:1007C000209739F4812F0E94A603DF91CF911F91CA
:1007D00008958FE99FE00197F1F700C0000021978D
:1007E000EFCF70E060E0893311F460E570E00E94C3
:1007F000D9030895882321F00E94E40A0E943A0B4D
:100800000895882321F00E94EA0A0E943A0B089575
:10081000B0E0A0E0EEE0F4E00C94AD1E6C01D62F49
:10082000C72FFC011581068102950F700E94DA0A1C
:10083000E82E8823E9F0E12E1123D1F08C2F807F60
:10084000803451F080E28D0F8830F8F0011104C03F
:100850008C2F807E8032C9F08091A80282FF15C063
:1008600082E00E949D0B0E94DA0A91E0E82EE926C0
:10087000BC2EB2949FE0B922FBE0FB15B8F1EB2D42
:10088000F0E0E75AF04E0C949E1EE12CF1CF0C2FB5
:100890000F70C07F11F00295007F112399F00023A3
:1008A00059F080E28D0F883010F0D11107C0802FF1
:1008B0000E94E40A0E943A0B8D2F5AC0802F0E949A
:1008C000F40AF8CF8D2F0E94A603002379F080E26E
:1008D0008D0F883010F0D11104C0802F0E94EA0AD9
:1008E00003C0802F0E94FA0A0E943A0BEB2DE850B9
:1008F000FF0B349720F40E9468150E94EB02EE2053
:1009000089F00E94D60A80FD0DC0F60115820E9472
:10091000D00A0E94D706C6010E9415060E94D00A7E
:100920000E94E706CDB7DEB7E9E00C94C91E2C2F74
:100930002F70F22EC07FC03219F0F29480EFF822AF
:10094000DD2341F0D130D1F1112309F444C000235B
:10095000F1F0B2CF8091A80282FD15C0112359F0A9
:10096000FF2029F08F2D0E94E40A0E943A0B80E0BC
:100970000E945903BBCF80E00E94A603FF2009F428
:10098000B5CF8F2DABCF112369F0011104C08F2D8E
:100990000E94FA03ABCF013009F0A8CF8F2D0E943F
:1009A000180BA4CF0111A2CF8F2D0E9401048F2D0F
:1009B0000E94240B8F2D0E94080B98CF112321F049
:1009C000063008F093CFE3CF053008F08FCF8F2D9E
:1009D0000E9401048BCF0023D1F3D93349F43FEFB8
:1009E00087EE93E0315080409040E1F700C0000076
:1009F0008D2F0E94A6037ACF8C2F869586958370C3
:100A000069F0813009F072CF8D2F9C2F93701111F6
:100A100002C080E090E00E94C21568CF8D2F9C2F0D
:100A20009370111102C080E090E00E949D155ECF8E
:100A3000612F8D2F0E944F0359CF8C2F8370A1F50A
:100A4000111154CF4D2F429546954770440F440FD6
:100A50002D2F2F7030E0042E02C0220F331F0A9476
:100A6000E2F790E080E0D4FF09C08FE090E002C0A0
:100A7000880F991F4A95E2F780959095C695C6957F
:100A8000C370822B932BC23049F058F4C13019F057
:100A90000E94A7062BCF0E949E0628CF0E94B00678
:100AA00025CF0E949B0622CF8695112311F08C2F13
:100AB0008170882309F41ACF4D2F429546954770CF
:100AC000440F440F2D2F2F7030E0042E02C0220F50
:100AD000331F0A94E2F790E080E0D4FF09C08FE072
:100AE00090E002C0880F991F4A95E2F78095909593
:100AF000C695C695C370822B932BC23049F058F42B
:100B0000C13019F00E941207F1CE0E940907EECE03
:100B10000E941B07EBCE0E94BF06E8CECF701123C8
:100B200029F08C2F0E94D7068D2F32CF8D2F0E9457
:100B300001048C2F0E94E706D9CED23F41F160F428
:100B4000D03FB9F0D13F81F0112309F446C0011123
:100B5000B3CE8C2F8F711FC0D33F01F1D43FA1F7CB
:100B60008091A80282FD24C08C2F8F71112311F374
:100B700012C0112341F0053008F0B8CE8C2F8F71D0
:100B80000E94F906B3CE063008F0B0CEF7CF8C2F16
:100B90008F711111CFCF0E94D706A8CE112329F053
:100BA0008C2F8F710E94CB06A1CE0E94C6069ECECE
:100BB000112349F0CF718C2F0E94D70663E08C2F50
:100BC0000E947F0B93CE81E00E949D0B023008F4BF
:100BD0008DCE82E00E949D0B89CE002359F0D9333F
:100BE00009F006CFEFEFF7EE23E0E150F0402040B0
:100BF000E1F7FCCE8C2F8F719DCF0F931F93CF9376
:100C0000DF93EC01688179818D810E94DA078C0184
:100C10000E9424070E949A06B801CE010E9408048F
:100C2000DF91CF911F910F910895CF93DF93EC0146
:100C30008C81882399F0CE010E947702811111C026
:100C40000E94DA0A882351F08D81882339F080913F
:100C5000A80282FF03C082E00E949D0BDF91CF912A
:100C60000895CE010E94FD05CE010E945202F6CFEA
:100C700090E080E00E949D1590E080E00E94C21507
:100C80000E94010B0E943A0B0E94A5120E94891239
:100C900008950E94C90A0E94380608950E94F10A28
:100CA0000E944906089592959F70963091F058F4ED
:100CB000925F9F70923058F4803F19F030F4883E74
:100CC00030F481E008959A5FF4CF843FD1F380E05F
:100CD0000895883EB0F3813FD1F7F3CFFC01248122
:100CE000222339F0808191810E94CF070E94530610
:100CF000089580E00895A6E0B0E0E1E8F6E00C9405
:100D0000B41E2696E2E00C94D01EA7E0B0E0EBE81B
:100D1000F6E00C94B41E2796E2E00C94D01E0895E1
:100D20000E948F0608950E9490069093CD018093B3
:100D3000CC01089508950E94930608952091CC0156
:100D40003091CD01822B932B0E9493060895209120
:100D5000CC013091CD01822393230E949306089504
:100D60002091CC013091CD01822793270E949306D8
:100D700008950E948F0608950E94B90608950E9462
:100D8000BC069093CB018093CA01089590E080E067
:100D90000E94BF06089521E030E0A90102C0440F7F
:100DA000551F8A95E2F7CA010E94BF06089521E007
:100DB00030E002C0220F331F8A95E2F78091CA010A
:100DC0009091CB01822B932B0E94BF06089521E0C6
:100DD00030E002C0220F331F8A95E2F7209530954C
:100DE0008091CA019091CB01822393230E94BF0678
:100DF000089521E030E002C0220F331F8A95E2F708
:100E00008091CA019091CB01822793270E94BF064F
:100E100008952091CA013091CB01822B932B0E941F
:100E2000BF0608952091CA013091CB0182239323FC
:100E30000E94BF0608952091CA013091CB018227FC
:100E400093270E94BF0608950895262F277091E0EA
:100E500001C0990F2A95EAF723E0769567952A95C0
:100E6000E1F7660F771F660F771FFA01E60FF71F8E
:100E700050E040E0682F70E08191DF0111979B0105
:100E8000042E02C0369527950A94E2F72170219529
:100E90002827292328272C934F5F5F4F4430510583
:100EA00059F70895A82FA77023E0969587952A955E
:100EB000E1F7880F991F880F991FFB01E80FF91FB1
:100EC00050E040E080E0219130E00A2E02C03695EB
:100ED00027950A94E2F721703327042E01C0220FD0
:100EE0000A94EAF7822B4F5F5F4F4430510559F760
:100EF0000895262F953070F48F3060F4682F70E0DD
:100F00008FE0989F600D711D112442EA51E0822FFD
:100F10000E9425070895292F953068F48F3058F4E2
:100F200090E062EA71E03FE0239F800D911D112463
:100F30000E945207089580E00895B0E0A0E0E3EA3F
:100F4000F7E00C94AD1E7C010091CA011091CB0119
:100F50008091CC019091CD01082B192BCFE0D0E0EE
:100F6000CC24C394D12CBC2EC6010C2E02C0880FF9
:100F7000991F0A94E2F780239123892B49F4219742
:100F800090F7B12C8B2DCDB7DEB7E9E00C94C91EDC
:100F9000B7018C2F0E94900E019789F3F3CFCF9366
:100FA000DF93EC010E949D07BE010E94900EDF912D
:100FB000CF9108951F93CF93DF93EB019091A101FF
:100FC000992339F0CB010E94CF07DF91CF911F9178
:100FD0000895882369F0CB010E949D07182F682F80
:100FE000CE010E947907BE01812F0E94900EEDCFA5
:100FF000CB010E948B07182FF6CF1F93CF93DF935F
:10100000C091CE0117E08091CF018C1304C0DF9115
:10101000CF911F910895D0E01C9FF0011D9FF00D0E
:101020001124E053FE4F208131814281538164813C
:10103000758186810E9485062196C770E4CF209134
:1010400008023091090240910A0250910B0260910E
:101050000C0270910D0280910E020E948506089587
:10106000CF93DF9380910E02807F09F04DC0809175
:101070000D02882309F448C0E091CE015091CF01C0
:10108000C0910902D091080260910A0270910B028E
:1010900047E05E17C9F18E2F90E0E49FF001112424
:1010A000E053FE4F2481222391F1489FF001499F94
:1010B000F00D1124DF01A053BE4F11962C91119712
:1010C0002C1325C02C912D1322C015962C91159709
:1010D00021111DC012962D913C91261B370B283CE7
:1010E0003105A8F480910E028F70806180930E020A
:1010F000EA52FE4F80818F708061808388E092E0A9
:101100000E9415060E94FD07DF91CF910895FC0112
:101110003196E770BECF482F2091CE019091CF013C
:1011200057E0291302C080E0089530E0529FF0019B
:10113000539FF00D1124E053FE4F8181681306C0C8
:101140008081481303C085818111EECF2F5F3F4F0F
:101150002770E7CFA4E1B0E0E0EBF8E00C94AA1E22
:101160008C0186E0F801DE011F9601900D928A95B0
:10117000E1F7F8018481E58098E0A92E92E0B92E8C
:1011800090910C0291111FC08823D1F0EE20A9F09C
:10119000C8010E946E06F82E882379F087E0F801D6
:1011A000D50101900D928A95E1F7C5010E94460391
:1011B0000E9430080E941F085FC0C8010E941506E7
:1011C000FF24F39459C0C080D18082809380F09036
:1011D0000D0220910A0230910B02A401421B530B15
:1011E000FF2009F4F9C0483C510508F0A7C0882346
:1011F00009F442C09091090280910E02282F207FAD
:1012000009F05CC09D1116C090910802C91212C06D
:10121000E1104EC08F70806180930E020E941F0803
:1012200088E092E00E94150680910E02F801868304
:10123000F12C22C0E1103CC06D2D8C2D0E948B083A
:101240006D2D8C2D0E948B08E82E8111F1CFCF8659
:10125000D88A8F8598890E94CF07292F22952F70D1
:10126000243078F49F702230A8F09923B9F0F80167
:101270009681907F99F4FE2C8F2D6496ECE00C946F
:10128000C61E2A5F2F70223068F0C8010E94150622
:10129000EF2CF1CF992311F0882369F3805E883019
:1012A00050F3F3CF803F38F3815F833070F7E3CFA3
:1012B00080910E02816080930E02BACF9D1113C0FF
:1012C00090910802C9120FC0E1100DC08683C801B9
:1012D0000E94150687E0F801A8E0B2E001900D92A7
:1012E0008A95E1F767CFC8010E946E06882309F44A
:1012F00064CFEE2009F461CF80910E02803288F035
:101300002091080230910902398728879B868A86B6
:1013100090910C029C871D868E87CE0108960E94B4
:10132000150687E0F801A8E0B2E001900D928A95D9
:10133000E1F70E9430080E941F0842CF90910E02F0
:10134000292F207FA1F4682D9A8A898AA6017A899B
:101350009E2D0E947B0688E092E00E94150687E0A1
:10136000F50111928A95E9F70E941F0861CF882341
:1013700009F482CF809109028D1110C0809108027A
:10138000C8120CC0E1100AC09683C8010E9415065D
:1013900087E0F50111928A95E9F76ECFC8010E94A6
:1013A0006E06882309F409CFEE2009F406CF809158
:1013B0000E02803208F4B5CF209108023091090264
:1013C0003A8329839C828B8290910C029D831E829A
:1013D0008F83CE010196A3CF483C5105B8F58823F1
:1013E00009F4EECEFE2CEE2009F4E7CE809109023E
:1013F0008D111EC080910802C8121AC080910E0281
:1014000080FD0DC0982F907F51F08683903F09F4A6
:101410005ECF982F907F905F8F70892B57CF87E09A
:10142000F801A8E0B2E001900D928A95E1F724CF8F
:10143000C8010E946E06811174CF80910E028160F6
:1014400080930E02C8010E94150616CF682D9A8A55
:10145000898AA6017A899E2D0E947B0687E0F50184
:1014600011928A95E9F7A6CEAEE0B0E0EAE3FAE0A1
:101470000C94B31E288739874A875B876C877D87E2
:101480008E87CE0108960E94AA088823B1F06C8549
:10149000662341F0288539854A855B857D858E8563
:1014A0000E94850617E08091CE019091CF018913AB
:1014B0003DC02E96E3E00C94CF1E87E0FE013896E7
:1014C000DE01119601900D928A95E1F78C858823B3
:1014D00049F32091CF0130E0C90101968770992727
:1014E0004091CE014817190699F097E0929FD001DC
:1014F000939FB00D1124A053BE4FFE013196019071
:101500000D929A95E1F78093CF010E94FD07CACF13
:101510000E944E061092CF011092CE0187E0E8E0C3
:10152000F2E0DF011D928A95E9F7BCCF819FC001EF
:10153000112480539E4F0E94AA08882309F4B9CF32
:10154000E091CE011E9FF0011124E053FE4F208157
:101550003181428153816481758186810E94850633
:101560008091CE0190E00196877099278093CE01FB
:101570009ACF682F80910001909101010E947B1603
:101580000895682F80910001909101010E948916B1
:10159000089580910001909101010E94971608958D
:1015A00080912F02869586958695089580912F02C9
:1015B0008770089590912F02977081E009F480E080
:1015C000089580915302089590915302892B80933E
:1015D000530208958095909153029823909353025B
:1015E000089510925302089590915202892B80938E
:1015F000520208958095909152029823909352023E
:10160000089510925202089508950E94040B0895BF
:1016100090913002292F282331F0809589238093DF
:1016200030020E94050B089508950E94140B08953E
:1016300090913102292F2823281729F0982B909375
:1016400031020E94150B089590913102292F282311
:1016500031F080958923809331020E94150B089503
:1016600080913102882329F01092310280E00E949B
:10167000150B0895CF93DF93E0910001F0910101E4
:10168000809153028083E0910001F09101018081FB
:1016900090915202892B808390913102992381F09D
:1016A000E0910001F09101018081892B808380917C
:1016B0000001909101010E94E71581110E94300BF9
:1016C000C0910001D091010140E250E06FE072E072
:1016D000CE010E94EF1E892B59F080E2FE01AFE09F
:1016E000B2E001900D928A95E1F7CE010E94751546
:1016F000DF91CF91089508950E947B0B08959091FA
:10170000A80292FF11C098E0899F90011124622BDA
:1017100060932F020E94D70680912F0286958695AE
:1017200086950E947C0B08950E94D706089510921A
:101730002F0280E00E947C0B089590912F028095EB
:10174000892380932F02282F277069F4891759F075
:101750009091A80292FF07C08695869586950E9473
:10176000E7060E94970B08959091A80292FB22270A
:1017700020F9281769F080FB92F99093A8028091D4
:10178000A7029091A8020E94FC0B82E00E949D0B90
:1017900008958091A80282FB882780F991E089272B
:1017A0000E94B40B089581E00E94B40B089580E07C
:1017B0000E94B40B08956FEF7FEF90E080E00E94ED
:1017C000411F089590E080E00E940D1F21E0863EB9
:1017D0009E4F09F020E0822F089582E090E00E9461
:1017E000051F089583E090E00E94051F089584E09E
:1017F00090E00E940D1F0895BC0184E090E00E94DB
:10180000411F0895AB01BC018FE090E00E94351F9D
:101810000895AB01BC0183E190E00E94351F08955B
:1018200060E070E0CB010E94090C089560E070E078
:10183000CB010E94020C0E94100C0895A8E0B0E0B9
:10184000E4E2FCE00C94B41E66EE7EEF90E080E0F3
:101850000E94411F60E082E090E00E94231F60E050
:1018600083E090E00E94231F1092CD011092CC01E2
:1018700060E074E184E090E00E94411F60E086E057
:1018800090E00E94231F6FEF87E090E00E94231FEB
:1018900040E050E0BA0188E090E00E94351F60E02F
:1018A00084E290E00E94231F60E087E190E00E94C4
:1018B000231F60E08CE090E00E94231F60E08DE039
:1018C00090E00E94231F19821A821B821C821D82B3
:1018D0001E821F82188648E050E068E170E0CE0169
:1018E00001960E94131F40E050E0BA0180E290E0B0
:1018F0000E94351F0E94160C2896E2E00C94D01E20
:101900000E941E0C0895682F8EE090E00E94231F15
:101910000895A6E0B0E0EFE8FCE00C94B21E0E944F
:101920007C178C0180915402909155028017910789
:1019300081F019821A820E947C17682F49815A818E
:10194000792F80E090E00E941603109355020093D7
:1019500054022696E4E00C94CE1E0E9488176093F1
:1019600064027093650280936602909367026093AD
:101970006002709361028093620290936302089503
:10198000089508950E94C00C089508950E94C50C02
:10199000089586E89FE00E942C110E94C10C0E94CD
:1019A000C20C089581E008950E94D20C08950E940F
:1019B000D20C0895089508950E94DA0C0E94DB0C61
:1019C00008950E94A50F0E94EA0208950E947317CD
:1019D0000E9480100E94E10C0E94C60C0895A6E0AF
:1019E000B0E0E5EFFCE00C94A81E0E94D40C81113D
:1019F0000AC00E94890C0E94C7120E94FD0226960E
:101A0000EEE00C94C41E0E94961026E5822E22E081
:101A1000922E640110E0F601E190F1906F01812FA8
:101A20000E94CB0F1F5F153009F44BC0E816F90672
:101A300091F38091680281FD0E94D40F0E94D70C1F
:101A4000782E10E066246394812F0E94CB0F7C01D6
:101A5000F401A190B1904F018A159B0561F1A82670
:101A6000BF2400E0CC24C394D12CC5018C219D213E
:101A7000892BC1F07720B1F009831A830E947C176B
:101A80009C838B836D8221E0C7018C219D21892B52
:101A900009F420E049815A816B817C818D81922FEC
:101AA0000E9416030F5FCC0CDD1C0F30F1F6F40121
:101AB0003297F182E0821F5F153031F60E94AD0C43
:101AC0009ACFE816F90609F0B4CF93CF1F93CF93BE
:101AD000DF930E94950EEC01C11580E5D807F0F563
:101AE000C11580E4D80708F09CC0C03ED10520F5A0
:101AF000CD3CD10508F082C0C83AD10578F4C53A8A
:101B0000D10508F073C0C130D10519F1209709F152
:101B1000C430D105F0F4D0E0C0E01BC0C33CD10517
:101B2000D0F7C85AD0E0CC0FDD1FC45BDE4F099060
:101B3000D881C02DD4640DC0C11580E2D80708F04B
:101B4000D1C0C11581E0D80708F05AC0C83ED10500
:101B500010F7CE01DF91CF911F910895C03682E535
:101B6000D80718F5C03482E5D80708F06BC0C0323A
:101B700082E5D80708F05FC0C11582E5D80708F4F0
:101B800097C02C2F2695269580E2289F900111243E
:101B90008C2F8370C1E0D0E002C0CC0FDD1F8A958E
:101BA000E2F7C22BD32BDD68D4CFC03A82E5D80749
:101BB00060F4C03882E5D80708F459C0CF71D0E08E
:101BC000DC2FCC27C46FD06AC4CFC03C82E5D807D5
:101BD00008F462C0C03E82E5D80708F09CCFDC2F35
:101BE000CC27CC27DF71C06FD06AB3CFC55AD0E005
:101BF000CE57DE4FC881D0E0D064ABCFD065A9CF3F
:101C00008D2F0E94370F182FCE0199270E94950E15
:101C1000C12FD0E0DC2FCC27CC27DF71C82BD92BEC
:101C200098CFCE0199270E94950ECC27DF70C82B44
:101C3000D92BD06A8ECFCF71D0E0DC2FCC27C16FEB
:101C4000D06A87CF2C2F26952695277080E2289F73
:101C5000900111248C2F8370C1E0D0E002C0CC0F22
:101C6000DD1F8A95E2F7C22BD32BDC6872CF2C2FB5
:101C700026952695277080E2289F900111248C2FAD
:101C80008370C1E0D0E002C0CC0FDD1F8A95E2F77F
:101C9000C22BD32BDA685DCF8C2F8F710E94370F48
:101CA000C82FD0E0DC2FCC27CC27DF71D06251CFFA
:101CB0008C2F8F710E94370F55E0D695C7955A9596
:101CC000E1F7CF70D0E0DC2FCC27282F30E084FF65
:101CD00005C044E0220F331F4A95E1F7C22BD32BF6
:101CE000D06937CF8D2F8F710E94370F182FCE01FB
:101CF00099270E94950EC12FD0E0DC2FCC27CC274E
:101D0000DF71C82BD92BD2CF462F753030F46F300E
:101D100020F4672F0E94F901089590E080E0089573
:101D20000E94840E0E94660D089582389105B9F1D3
:101D3000B0F48133910509F47DC048F489329105EE
:101D400009F46DC08A32910509F47BC0089585338A
:101D5000910509F45FC08933910509F10895833E27
:101D60009105D9F138F4803E910529F1823E910523
:101D700079F10895863E9105D9F1873E910509F4E0
:101D80003EC0843E910541F52091A80221FF24C068
:101D90008091A70284FD19C087EE90E008952091FC
:101DA000A702237009F05AC02091A80223FF14C093
:101DB00089E290E008952091A70220FD38C030917B
:101DC000A80230FF09C024FF43C090E080E00895DE
:101DD0002091A70222FDF7CF08952091A70222FDAE
:101DE0003AC03091A80230FD39C024FFF5CFEDCFC5
:101DF0002091A70223FFF0CF24FDE7CFCDCF209184
:101E0000A70223FD2EC03091A80231FFEECF84EE51
:101E100090E008952091A70225FFDECFC9CF209141
:101E2000A70225FD21C02091A80223FFD5CF89E379
:101E300090E0D2CF2091A70226FFCECF8AE290E099
:101E400008952091A70226FFC7CF81E390E008956F
:101E500083EE90E0089582EE90E0089580EE90E0A9
:101E6000089586EE90E0089585E390E008959091BE
:101E7000A70292FF10C041E0282F2471243009F0FE
:101E800040E031E0282F2871283009F030E0431776
:101E900011F02CE0822793FF10C041E0282F24711D
:101EA000243109F040E031E0282F2871283109F071
:101EB00030E0431711F02CE082273091A80230FF68
:101EC00010C051E0282F2171213009F050E041E08D
:101ED000282F2871283009F040E0541711F029E02C
:101EE000822731FF10C041E0282F2171213109F0F4
:101EF00040E031E0282F2871283109F030E0431705
:101F000011F029E0822794FD877E089580E00895EE
:101F10000E94DB0B08950E9496102FEF86E791E058
:101F2000215080409040E1F700C000000E949610D0
:101F300080E00E94CB0F80FF04C00E94880F0E94A7
:101F4000C71708950E948B0F08950E94E20B81111C
:101F500002C00E94800C0E94ED0B809368020E94D8
:101F6000F70B9093A8028093A7020E94A20F0E94F1
:101F7000F20B90E00E949B068091CA019091CB01E8
:101F80000E94BC06089508950E94C30F0895089505
:101F90000E94C70F0895E82FF0E0EE0FFF1FED54E9
:101FA000FD4F808191810895089580EA8A95F1F727
:101FB000089500C008950E94D50F0895F894E82F61
:101FC000E295EF70F0E031A1282F2F7081E090E0D2
:101FD00001C0880F2A95EAF7982F9095932391A333
:101FE00092A1892B82A378940895CF93DF93C4E9BB
:101FF000D1E089918F3F11F00E94DE0F81E0C93955
:10200000D807B9F7C5E8D1E089918F3F11F00E9458
:10201000DE0F81E0C439D807B9F7DF91CF91089579
:10202000AF92BF92DF92EF92FF920F931F93CF93E5
:10203000DF938C01D62EC62FD0E0CE018C569E4F5A
:102040007C01FC0120812F3F09F44DC0F894E22F60
:10205000E295EF70F0E031A12F7081E090E001C0D7
:10206000880F2A95EAF7932F982B91A392A1809538
:10207000892382A378940E94D90FE5E8F1E044E92E
:1020800051E021E030E0B12CA12C61916F3FA9F12A
:10209000A62FA295AF70B0E090968C9190E06F70F3
:1020A00002C0959587956A95E2F780FD26C0C90123
:1020B000A82AB92A220F331F4E175F0731F7F701FD
:1020C00080818F3F11F00E94DE0F61E0A114B10406
:1020D00009F460E08D2D0E94DB0FCC0FDD1FC00FD7
:1020E000D11FB982A882DF91CF911F910F91FF90EC
:1020F000EF90DF90BF90AF90089590E080E0D8CF50
:102100000E94F50F8AE0E3EBF2E0DF01982F1D92C9
:102110009A95E9F7E9EAF2E0DF011D928A95E9F77D
:1021200085E00E94D1100E94C40F0895AAE0B0E09B
:10213000ECE9F0E10C94B11E8E010F5F1F4F8AE0B5
:10214000F80111928A95E9F7F12C6F2DC8010E94D0
:102150001010F394F5E0FF12F8CF4AE050E0B80118
:1021600089EA92E00E94EF1E21E0009709F420E046
:10217000892B41F08AE0F801A9EAB2E001900D92C2
:102180008A95E1F745E063EB72E089EA92E00E940C
:10219000D210182F0E94C80F812F2A96E5E00C94C8
:1021A000CD1E0895CF92DF92EF92FF921F93CF93AF
:1021B000DF936C017B01C42F222349F081E08093DF
:1021C0006B020E947C1790936A02809369021091BF
:1021D0006B0211110AC010E0812FDF91CF911F9186
:1021E000FF90EF90DF90CF900895809169029091D9
:1021F0006A020E949417059770F3D0E0CC0FDD1FA0
:10220000AE01B601C7010E94EF1E892B41F0AE015D
:10221000B601C7010E94FC1E10926B02DDCF10E0D8
:10222000FBCF0E9460190E94E60C0E946D19089570
:102230000E9472190E94EF0C0E948C1908950E944E
:1022400015170E9446190E94C90C0E9411110E9484
:1022500018110E94DC0CFBCF90939B0180939A0194
:102260000895282F35EB2303C001112497FF04C0E4
:1022700080589109892F089580589F4FFBCF8091F6
:10228000720280FF0DC06091070170E0660F771F3A
:102290006038710570F56115710569F1862F089533
:1022A00081FF07C06091070184E0689FB00111249D
:1022B000EFCF6091070182FD0AC0809171028823EF
:1022C000A9F02091060160910701821710F088E0C3
:1022D000ECCF869FC001112433E0880F991F3A95F7
:1022E000E1F7622F70E00E948A1ED2CF68E070E0B2
:1022F000D5CF8FE7089581E008958091720280FF25
:102300000CC06091030170E07595679575956795B0
:102310006115710549F1862F089581FF06C060910E
:10232000030170E075956795F3CF6091030182FD1D
:102330000BC0909170029923A1F0609102018091ED
:102340000301961738F0682F70E06038710500F3CC
:102350008FE70895899FC001112470E00E948A1EB2
:10236000F4CF61E070E0D7CF81E008958D3C31F487
:102370000E943F1181958093760208958E3C19F456
:102380000E943F11F8CF8F3C31F40E943F1181959C
:10239000809375020895803D19F40E943F11F8CF93
:1023A000893D29F40E947D118093770208958A3D2A
:1023B00021F40E947D118195F7CF8B3D31F40E946D
:1023C0007D1181958093780208958C3D19F40E94C7
:1023D0007D11F8CF9FE2980F983070F4815D990BD2
:1023E00021E030E001C0220F8A95EAF78091740263
:1023F000822B8093740208958D3D31F48091720296
:1024000081608093720208958E3D21F48091720262
:102410008260F7CF8F3DB9F7809172028460F1CF6F
:10242000409175028D3C59F48091760287FF0DC072
:102430001092760241110BC01092710208C08E3CBE
:1024400081F48091760218169CF3442381F08091E8
:10245000770290917802892B09F05AC0109270028D
:1024600008958F3C49F447FFF0CF10927502809198
:1024700076028111ECCFE0CF803D19F41416ACF355
:10248000E4CF90917702893D29F41916F4F6109261
:102490007702DBCF8A3D19F497FFD7CFF8CF909121
:1024A00078028B3D29F497FFD0CF10927802CDCFE0
:1024B0008C3D19F41916CCF3C8CF9FE2980F9830D1
:1024C00090F4815D990B21E030E0B90102C0660F04
:1024D000771F8A95E2F7CB0180959091740289234A
:1024E00080937402B2CF8D3D31F4809172028E7F61
:1024F00080937202AACF8E3D21F4809172028D7F6B
:10250000F7CF8F3D09F0A1CF809172028B7FF0CF82
:1025100008950E947C179C0190917502809176022B
:10252000982B21F030936F0220936E0290917702E6
:1025300080917802982B21F030936D0220936C02E9
:1025400083E792E00E948F15089586E0E3E7F2E0CA
:10255000DF011D928A95E9F71092710210927002C4
:10256000109272020895FC01828181110EC0838154
:1025700081110BC08481811108C091E08581811196
:1025800001C090E0892F8170089581E0FCCFA6E022
:10259000B0E0EDECF2E10C94B31E86E0E3E7F2E08C
:1025A000DE01119601900D928A95E1F71092750265
:1025B0001092760210927702109278028B819C81A1
:1025C000892B89F080916E0290916F020E9494177E
:1025D000AC01909171029923C9F18091080184178F
:1025E000150608F440C08D819E81892B91F0809161
:1025F0006C0290916D020E949417AC019091700250
:10260000992309F46AC0809104018417150608F41F
:1026100072C0BE016F5F7F4F83E792E00E94A916F0
:10262000811105C083E792E00E94B31281110E94DC
:10263000891286E0FE013196A3E7B2E001900D9287
:102640008A95E1F72696E3E00C94CF1E20910901CC
:102650008AE0289F900111242417350720F69F5FF8
:102660009093710202C09F3FD1F71B81112359F053
:102670000E943F119FEF11160CF491E0899F802D6D
:102680001124809375021C81112359F00E943F117F
:102690009FEF11160CF491E0899F802D11248093F7
:1026A000760280917502882309F49DCF10917602FD
:1026B000112309F498CF0E943111882351F080939F
:1026C0007502812F0E943111882329F080937602B0
:1026D0008ACF81E0F4CF81E0F9CF209105018AE033
:1026E000289F900111242417350708F092CF9F5F8F
:1026F0009093700202C09F3FD1F71D81112359F0C2
:102700000E947D119FEF11160CF491E0899F802D9E
:102710001124809377021E81112359F00E947D11AC
:102720009FEF11160CF491E0899F802D1124809366
:10273000780280917702882309F46BCF1091780298
:10274000112309F466CF0E943111882351F0809340
:102750007702812F0E943111882329F0809378021B
:1027600058CF81E0F4CF81E0F9CFCF93DF93EC0134
:10277000FB018581882309F4D2C09E0130572332A2
:10278000310508F0B2C00E94F70B9093A802809325
:10279000A702FE01E150F047E232F10520F4EB59C7
:1027A000F04E0C949E1E8091A70281608093A70238
:1027B00093C08091A80288608093A8028DC0809108
:1027C000A7028260F3CF8091A7028460EFCF80914F
:1027D000A7028860EBCF8091A8028160EDCF809145
:1027E000A8028260E9CF8091A7028061DFCF80914B
:1027F000A7028062DBCF8091A7028064D7CF0E94BE
:102800004E068091A7028068D1CF8091A7028C608C
:10281000CDCF8091A8028360CFCF8091A7028E7F19
:10282000C5CF8091A802877FC7CF8091A7028D7FF7
:10283000BDCF8091A7028B7FB9CF8091A702877F00
:10284000B5CF8091A8028E7FB7CF8091A8028D7FEF
:10285000B3CF8091A7028F7EA9CF8091A7028F7DF1
:10286000A5CF8091A7028F7BA1CF0E944E068091B9
:10287000A7028F779BCF8091A702837F97CF80910C
:10288000A8028C7F99CF8091A70282FB992790F9AB
:1028900021E0922790FB82F990FB83F987CF80910A
:1028A000A802982F909591708E7F892B90FB81F9CB
:1028B00083CF9091A702892F8F7B96FF806476CF7C
:1028C0000E944E069091A702892F97FB87F98058A6
:1028D0006DCF81E00E94830C8091A7029091A802A5
:1028E0000E94FC0B0E944E0680E0DF91CF9108957C
:1028F00080E0F0CF9091A702892F8F7E94FF8061B6
:1029000055CF9091A702892F8E7F90FF81604ECF87
:102910009091A802892F877F93FF88604DCF81E037
:10292000E4CFCF93DF93EB0186319C4711F50E94F2
:10293000E10A9D81992399F08A7A91E009F490E067
:1029400090937902811109C089E20E94B90A0E941C
:102950003A0B80E0DF91CF91089585E3F6CF809127
:102960007902811104C089E20E94C10AF0CF85E397
:10297000FBCF81E0EFCF0F931F93CF93DF93C42F53
:10298000D22FFC0185818823C9F040937C020E94EC
:102990007C1790937B0280937A0280E28C0F8830C0
:1029A00040F4C77081E001C0880FCA95EAF70E9421
:1029B000FA03DF91CF911F910F91089510917C023E
:1029C000141332C080917A0290917B020E94941776
:1029D000883C910548F5C0E2CD0F1D17B9F080E2A3
:1029E000810F883040F4177081E001C0880F1A957C
:1029F000EAF70E940104C83048F481E09D2F9770E7
:102A000001C0880F9A95EAF70E94FA03802F0E946E
:102A1000F103C83070F6D77081E001C0880FDA95F5
:102A2000EAF70E940104C5CF80E28C0F883008F6D7
:102A3000C77081E001C0880FCA95EAF7F2CF0F9303
:102A4000DB0188519C4787309105A0F5FC01E957CF
:102A5000F04E0C949E1E06E221EE41EE6AE17CE708
:102A6000CD010E94BB1480E00F91089507E225EE8E
:102A700045EE6BE17CE7F4CF06E221EE40EE68E143
:102A80007CE7EECF07E225EE44EE69E17CE7E8CF94
:102A900006E221EE42EE6CE17CE7E2CF07E225EEB2
:102AA00046EE6DE17CE7DCCF08E221E045EE6EE129
:102AB0007CE7D6CF15968C91882319F010927C0272
:102AC000D3CF81E0D1CF9093820280938102089589
:102AD000E0918102F0918202309729F00190F0811B
:102AE000E02D0995089580E00895E0918102F0912C
:102AF0008202309799F020911201222359F02091FF
:102B0000A70227FF07C0DC012C9111962C93119787
:102B100026E02C930280F381E02D09950895E09141
:102B20008102F0918202309739F022E0DC012C938F
:102B30000480F581E02D09950895A3E0B0E0E3EA73
:102B4000F5E10C94B41E20917F0230918002281789
:102B50003907A1F09093800280937F02E091810277
:102B6000F0918202309751F023E029839B838A837E
:102B70000680F781E02DCE01019609952396E2E0CB
:102B80000C94D01EA3E0B0E0E8ECF5E10C94B41E88
:102B900020917D0230917E0228173907A1F0909391
:102BA0007E0280937D02E0918102F0918202309753
:102BB00051F024E029839B838A830680F781E02DEE
:102BC000CE01019609952396E2E00C94D01EFC01FB
:102BD000329680911201882321F08091A7029EE114
:102BE00087FF96E080E0915008F408952191222318
:102BF000D1F38F5FF8CF662301F1209112012223D8
:102C0000F1F02091A70227FF1AC0462F469546955E
:102C100046954E3190F4677021E030E002C0220FFB
:102C2000331F6A95E2F7840F911DFC01828190E0C9
:102C30002823392381E0232B69F480E00895FC01E7
:102C4000329608962191261721F0E817F907D1F757
:102C5000F4CF81E008959C01FC0132969FEF80E063
:102C60004191461751F09F3F19F4411101C0982F2F
:102C70008F5F8630A9F79F3F09F40895290F311D12
:102C800097FD3A95F90162830895FC013296089602
:102C90002191261303C0DF0111971C92E817F90751
:102CA000B9F70895E62FE695E695E695EE3168F4D6
:102CB000E80FF92FF11D677021E030E001C0220F0D
:102CC0006A95EAF78281822B82830895E62FE69542
:102CD000E695E695EE3170F4E80FF92FF11D677077
:102CE00021E030E001C0220F6A95EAF72095828149
:102CF00028232283089520911201222339F0209164
:102D0000A70227FF03C00E94521608950E942B16A7
:102D1000089520911201222339F02091A70227FF64
:102D200003C00E94661608950E9445160895FC018E
:102D3000329680911201882351F08091A70287FF7B
:102D400006C08EE1DF011D928A95E9F7089586E0BD
:102D5000F9CFDC01FB0111969C91119781819813A9
:102D600022C012968C911297882319F092818913B0
:102D70001AC013968C911397882319F093818913A5
:102D800012C015968C911597882319F09581891397
:102D90000AC014969C91992321F081E02481291383
:102DA00003C080E001C081E08170089508950E9411
:102DB000D6160895811106C081E0809383020E9497
:102DC000D716089582E0F9CF83E0809383020E94B2
:102DD000D71608950E94DA16089581E08093830241
:102DE0000E94D71608950E94ED160895089508953B
:102DF0000E94F7160895089508950E94F616089502
:102E0000CF930E94FB160E9496100E94FC16C0E011
:102E10008C2F0E94CB0F892B31F4CF5FC530C1F7C7
:102E200080E0CF91089581E0FCCF85B7806885BFB1
:102E300085B7806885BF08951F921FB61F92112421
:102E40008F939F93AF93BF9380918402811113C09E
:102E50008091BD029091BE02A091BF02B091C002CC
:102E60004196A11DB11D8093BD029093BE02A09317
:102E7000BF02B093C002BF91AF919F918F911F90FD
:102E80001FBE1F9018958091C502843031F10E94B9
:102E9000CD021092840288E190E020E40FB6F8940D
:102EA000A895809360000FBE2093600083B7817F58
:102EB000846083BF83B7816083BF7894889583B72C
:102EC0008E7F83BF0FB6F894A895809160008861CB
:102ED00080936000109260000FBE08950E944E061D
:102EE0000E94D202089582E084BD93E095BD9AEFDE
:102EF00097BD80936E0008952FB7F8948091BD021E
:102F00009091BE02A091BF02B091C0022FBF089560
:102F10002FB7F8946091BD027091BE028091BF02FC
:102F20009091C0022FBF08959C014FB7F8948091F3
:102F3000BD029091BE02A091BF02B091C0024FBFEE
:102F4000821B930B089578941F921FB61F92112431
:102F50008F939F93AF93BF938091BD029091BE02D8
:102F6000A091BF02B091C0020196A11DB11D809336
:102F7000BD029093BE02A093BF02B093C002BF9166
:102F8000AF919F918F911F901FBE1F90189581E068
:102F90008093E00080E28093D8001092C9008FE116
:102FA0009EE40197F1F700C0000087E090EBDC01A0
:102FB0008093CE029093CF02A093D002B093D1021F
:102FC00088E19CE00FB6F894A895809360000FBE4E
:102FD00090936000FFCF88E19CE00FB6F894A8952D
:102FE000809360000FBE90936000FFCF8091A50298
:102FF00008959B01BA019091C5029430E9F48F7055
:103000008093E9009FEF8091E800915085FD06C014
:1030100085ED8A95F1F700009111F5CF8091E800D8
:1030200085FF0AC050E040E0C9010E94031A809168
:10303000E8008E778093E800089543E050E0BC01FB
:1030400082E00E94F917089546E050E0BC0182E05A
:103050000E94F9170895CF93DF93EC01809112013C
:10306000811111C048E050E0BE0181E00E94F917D3
:1030700080E2FE01A5E8B2E001900D928A95E1F7A9
:10308000DF91CF9108958091A70287FF05C040E2AC
:1030900082E050E0BE01EACF48E081E0FACF8091C3
:1030A000C402811109C00E94931B0E94F01B8091F1
:1030B000E20084608093E20008951092C4020895B3
:1030C0000E94ED1608956091C10281E0611101C076
:1030D00080E00E94E41608959091C50281E094304A
:1030E00009F080E06091C1020E94EA16089542E072
:1030F00061EC81E00E940F1B42E261EC82E00E94E1
:103100000F1B9091C50281E0943009F080E060913E
:10311000C1020E94DA1608958091C702833009F433
:1031200061C030F48130D1F1823009F49EC008953D
:103130008A3009F48AC08B3009F46FC0893009F0F5
:1031400050C08091C602813209F04BC08091CA0202
:103150009091CB02029708F044C08091E800877FED
:103160008093E8008091E80082FF37C09091F300DF
:103170008091F200029731F48091F100813011F0DA
:10318000863021F48091F1008093A5028091E800BF
:103190008B778093E8000E94431B23C08091C60276
:1031A000813AF9F48091E800877F8093E80080916C
:1031B000CA029091CB02892B61F460E285E892E02B
:1031C00070E00E94521A8091E8008B778093E800AB
:1031D000089560E090E080E0F3CF8091C502811116
:1031E000C1CF08958091C602813AD9F78091CA0271
:1031F0009091CB02892BA9F78091E800877F80937B
:10320000E8008091E80080FFFCCF8091120180935C
:10321000F1008091E8008E77BCCF8091C6028132A8
:1032200001F78091CA029091CB02892BD1F680914F
:10323000E800877F8093E8000E94431B8091C802CA
:10324000809312010E944E0608958091C602813239
:1032500041F68091E800877F8093E8000E94431B3D
:103260008091C9028093A60208958091C602813A96
:1032700009F0B7CF8091E800877F8093E8008091C4
:10328000E80080FFFCCF8091A602C1CF84B7877F82
:1032900084BF0FB6F894A8958091600088618093F0
:1032A0006000109260000FBE80E890E00FB6F894C6
:1032B00080936100909361000FBE0E94F316089501
:1032C0000E94931B0E94F01BE2EEF0E0808184607C
:1032D000808378940E946F1E08958AE091E00E9496
:1032E000631508958091C502853031F48091C5023F
:1032F000853019F00E946E1708950E94431780913F
:10330000C302882399F30E940017882379F30E944F
:10331000ED190E944E06EACF08959A014091CC0221
:103320005091CD020E9495190895492F5527433099
:10333000510519F168F44130510509F444C0423097
:10334000510509F445C090E080E050E040E025C020
:103350004132510549F142325105A9F784E490E028
:1033600041E053E061157105C1F086EB90E04BE45C
:1033700052E06130710589F0E6CF992781309105DF
:1033800081F0009729F00297F1F6E8EDF1E002C034
:10339000EAEFF1E0849190E0AF01F90151834083BD
:1033A0000895E4EEF1E0F6CF89E090E040E152E0EC
:1033B0006115710591F389E090E049E252E06130D6
:1033C000710559F3C0CF82E190E049E352E0E5CFC7
:1033D0008BE390E04EEF51E0E0CF80E189BD82E1E8
:1033E00089BD09B400FEFDCF8091D8008F7D809308
:1033F000D8008091E00082608093E0008091E0003E
:1034000081FDFCCF0895AF92BF92CF92DF92FF92E1
:103410000F931F93CF93DF936C01EB018A010E94FE
:10342000621BF82E811123C00115110539F0F80136
:1034300080819181C81BD90BC80ED91EB12CA12C3B
:103440002097A9F08091E80085FD22C08091E800D6
:103450008E778093E80001151105A1F0F8018081B5
:103460009181A80EB91EB182A08285E0F82E8F2D21
:10347000DF91CF911F910F91FF90DF90CF90BF9080
:10348000AF9008950E94621B8823D1F2F82EEFCFEF
:10349000F60181916F018093F1002197FFEFAF1A40
:1034A000BF0ACECFFC018091CC029091CD0286174D
:1034B0009707A0F06115710529F49091E8009E77B7
:1034C0009093E80090E06115710551F4911108C0E6
:1034D0008091E80082FF34C080E00895BC01F2CF03
:1034E0008091C5028823C1F18530C1F18091E80047
:1034F00083FD30C08091E80082FDEACF8091E80032
:1035000080FFE1CF8091F3002091F200382F611508
:10351000710519F02830310558F091E02830310557
:1035200009F090E02091E8002E772093E800CBCFBF
:1035300081918093F100615071092F5F3F4FE7CF78
:103540008091C502882341F0853041F08091E800E8
:1035500083FFBECF81E0089582E0089583E008955F
:10356000FC018091CC029091CD0286179707A0F0C4
:103570006115710529F48091E8008E778093E80049
:1035800090E06115710551F4911108C08091E80037
:1035900082FF35C080E00895BC01F2CF8091C50262
:1035A0008823C9F18530C9F18091E80083FD31C0DD
:1035B0008091E80082FDEACF8091E80080FFE1CFB2
:1035C0008091F3002091F200382F6115710519F0F8
:1035D0002830310558F091E02830310509F090E0AD
:1035E0008091E8008E778093E800CBCF8491809320
:1035F000F1003196615071092F5F3F4FE6CF809106
:10360000C502882341F0853041F08091E80083FFB6
:10361000BDCF81E0089582E0089583E00895982F5A
:10362000973028F08F708093E90081E0089590939F
:10363000E900242F762F50E0981731F07091EC00BC
:103640002091ED005091F00021FD02C09F5FE8CF76
:103650003091EB003E7F3093EB003091ED003D7FE9
:103660003093ED003091EB0031603093EB007093BC
:10367000EC002093ED005093F0002091EE0027FD28
:10368000E5CF80E008958091C60287FF13C0809146
:10369000E80082FF06C08091E8008B778093E80005
:1036A00004C08091C5028111F2CF08958091C502B6
:1036B0008823D9F38091E80080FFF8CF8091E8005B
:1036C0008E77ECCF2091E4003091E50095E6A901DA
:1036D0002091EC00822F817020FF06C08091E800CD
:1036E00080FF06C080E008952091E80022FD1AC006
:1036F0008091C502882389F0853089F08091EB00A4
:1037000085FD0FC02091E4003091E500421753077A
:10371000F9F29150E1F684E0089582E0089583E0A3
:10372000089581E008950E94021C0E940A1CE0EEA8
:10373000F0E0808181608083E8EDF0E080818F7728
:10374000808319BCA7EDB0E08C918E7F8C93808133
:103750008F7E80831092C40208950F931F93CF939E
:10376000DF930E94021C0E940A1CC8EDD0E08881F1
:103770008F77888388818068888388818F7D88831C
:1037800019BC1092C5021092C1021092C30210928D
:10379000C20200EE10E0F80180818B7F8083888177
:1037A0008160888342E060E080E00E940F1BE1EED0
:1037B000F0E080818E7F8083E2EEF0E080818160A6
:1037C0008083808188608083F80180818E7F808300
:1037D000888180618883DF91CF911F910F91089537
:1037E000E8EDF0E080818F7E8083E7EDF0E080817E
:1037F0008160808384E082BF81E08093C4020E9464
:10380000AD1B0895E8EDF0E080818E7F80831092FB
:10381000E20008951092DA001092E10008951F92DC
:103820000F920FB60F9211242F933F934F935F93F4
:103830006F937F938F939F93AF93BF93EF93FF9378
:103840008091E10082FF0BC08091E20082FF07C0FF
:103850008091E1008B7F8093E1000E946E1E809139
:10386000DA0080FF19C08091D80080FF15C08091D8
:10387000DA008E7F8093DA008091D90080FF96C0B5
:1038800080E189BD82E189BD09B400FEFDCF81E000
:103890008093C5020E944F188091E10080FF19C0FB
:1038A0008091E20080FF15C08091E2008E7F8093BE
:1038B000E2008091E20080618093E2008091D80074
:1038C00080628093D80019BC85E08093C5020E9475
:1038D00063188091E10084FF2BC08091E20084FF97
:1038E00027C080E189BD82E189BD89B5982F91709B
:1038F00080FFFBCF8091D8008F7D8093D80080918E
:10390000E1008F7E8093E1008091E2008F7E8093C2
:10391000E2008091E20081608093E2008091C10228
:10392000882309F449C084E08093C5020E946C1882
:103930008091E10083FF29C08091E20083FF25C0D0
:103940008091E100877F8093E10082E08093C5024F
:103950001092C1028091E1008E7F8093E1008091FE
:10396000E2008E7F8093E2008091E200806180938C
:10397000E20042E060E080E00E940F1B8091F000D6
:1039800088608093F0000E946018FF91EF91BF91D2
:10399000AF919F918F917F916F915F914F913F91E7
:1039A0002F910F900FBE0F901F90189519BC109279
:1039B000C5020E945D1870CF8091E30087FD93E0FF
:1039C0009093C502B3CF1F920F920FB60F9211249E
:1039D0002F933F934F935F936F937F938F939F9317
:1039E000AF93BF93CF93DF93EF93FF93D091E90011
:1039F000DF708091EC00C82FC17080FDC0E810928C
:103A0000E9008091F000877F8093F00078940E9415
:103A1000271D1092E9008091F00088608093F000EB
:103A2000CD2BCF70C093E900FF91EF91DF91CF9143
:103A3000BF91AF919F918F917F916F915F914F91C6
:103A40003F912F910F900FBE0F901F901895AAE2F3
:103A5000B0E0EDE2FDE10C94B31E86EC92E0209123
:103A6000F100FC012193CF01F2E08E3C9F07B9F7F2
:103A70000E948C188091E80083FF1EC18091C602CD
:103A80009091C7029A3008F017C1E92FF0E0E25791
:103A9000F04E0C949E1E803899F0823809F00CC1CB
:103AA0008091CA028F70873008F006C18093E900C8
:103AB0008091EB0085FB882780F91092E90006C011
:103AC0008091C2029091C302911182609091E800AE
:103AD000977F9093E8008093F1001092F10080911D
:103AE000E8008E77E5C0882309F4D3C0823009F05E
:103AF000E3C08091C8028111D6C08091CA028F7044
:103B00002FEF280F263008F0D7C08093E9002091CE
:103B1000EB0020FFC8C0933031F48091EB0080624D
:103B20008093EB00C0C09091EB0090619093EB000C
:103B300021E030E001C0220F8A95EAF72093EA00E5
:103B40001092EA008091EB008860EACF8111B4C046
:103B50001091C8021F778091E3008078812B8093B9
:103B6000E3008091E800877F8093E8000E94431B78
:103B70008091E80080FFFCCF8091E3008068809313
:103B8000E30082E0111183E08093C50295C0805864
:103B9000823008F091C08091C8029091C9028C3D9A
:103BA00023E09207A1F583E08A838AE289834FB7F5
:103BB000F894DE01139620E03EE051E2E32FF0E0BE
:103BC00050935700E49120FF03C0E295EF703F5FF0
:103BD000EF708E2F90E0EA30C0F0C7968D939D93E2
:103BE0002F5F243159F74FBF8091E800877F809382
:103BF000E8006AE270E0CE0101960E94521A8091BC
:103C0000E8008B778093E80057C0C096E7CF6091BB
:103C1000CA027091CB02AE014F5F5F4F0E948D19B7
:103C2000BC01892B09F448C09091E800977F9093DC
:103C3000E80089819A810E94B01AE1CF8038E1F5CD
:103C40008091E800877F8093E8008091C102809393
:103C5000F10045CF811130C09091C802923060F5DB
:103C60008091E800877F8093E8009093C1020E94D2
:103C7000431B8091C102882311F084E005C080912C
:103C8000E30087FDFACF81E08093C5020E94771898
:103C900013C08091C802813079F481E0933009F03B
:103CA00080E08093C3021092E9008091E800877F52
:103CB0008093E8000E94431B8091E80083FF0AC0C4
:103CC0008091E800877F8093E8008091EB0080621C
:103CD0008093EB00AA96E3E00C94CF1E0895CF9357
:103CE0008091C5028823A1F0C091E900CF70909126
:103CF000EC00892F817090FD80E8C82B1092E900BC
:103D00008091E80083FD0E94271DCF70C093E900D9
:103D1000CF91089597FB072E16F4009407D077FDF6
:103D200009D00E94DB1E07FC05D03EF490958195DA
:103D30009F4F0895709561957F4F0895EE0FFF1F77
:103D40000590F491E02D09942F923F924F925F924B
:103D50006F927F928F929F92AF92BF92CF92DF929B
:103D6000EF92FF920F931F93CF93DF93CDB7DEB700
:103D7000CA1BDB0B0FB6F894DEBF0FBECDBF099494
:103D80002A88398848885F846E847D848C849B84EB
:103D9000AA84B984C884DF80EE80FD800C811B81F9
:103DA000AA81B981CE0FD11D0FB6F894DEBF0FBE28
:103DB000CDBFED010895AA1BBB1B51E107C0AA1F8F
:103DC000BB1FA617B70710F0A61BB70B881F991FBC
:103DD0005A95A9F780959095BC01CD010895FB01F6
:103DE000DC0104C08D910190801921F441505040B4
:103DF000C8F7881B990B0895FB01DC0102C00190F4
:103E00000D9241505040D8F70895F999FECF92BDD8
:103E100081BDF89A992780B50895A8E1B0E042E005
:103E200050E00C94491FDC01A40FB51F41505040D5
:103E300048F0CB01840F951F2E910E94241F415002
:103E40005040D0F70895262FF999FECF92BD81BD3D
:103E5000F89A019700B4021639F01FBA20BD0FB6C8
:103E6000F894FA9AF99A0FBE08950396272F0E94A4
:103E7000241F0E94231F252F0E94241F242F0C94EF
:103E8000241F0196272F0E94241F0C94231FDC015E
:103E9000CB01FC01F999FECF06C0F2BDE1BDF89A55
:103EA000319600B40D9241505040B8F70895F894FF
:103EB000FFCF4704470497049704FC0418057604D1
:103EC00076041D058E059D059D050D1481141514A0
:103ED000DF13E3131914E7131D142914F3137A14D1
:103EE000F7132D14FB1331145914FF1335146014F8
:103EF00005143B144314EB132114EF132514091478
:103F00003F144F1469147814D913111488143C15F4
:103F100042152B15361548154E1554154B1D731D9E
:103F20005C1E731D5C1EA61DC71D5C1E1E1E2A1E68
:103F30003202280850011E0A1401F6172B18241803
:103F40001D1801E200E900EA00B500B600B700CD97
:103F5000008301CC008A01920194012102230224F2
:103F6000022502260227022A02B300B4006F007065
:103F7000009F01CB019F02A002818283E200E90041
:103F8000EA00B500B600B700CD008301CC008A017D
:103F90009201940121022302240225022602270213
:103FA0002A02B300B4006F0070009F01CB019F0292
:103FB000A0028182839496973435366766F7F6F5CA
:0A3FC000F4F1F0C691929395900081
:00000001FF
