:100000000C949E010C94D6010C94D6010C94D6014C
:100010000C94D6010C94D6010C94D6010C94D60104
:100020000C94D6010C94D6010C947D1C0C94501D9C
:100030000C9487170C94D6010C94D6010C94D6011D
:100040000C94D6010C94D6010C94D6010C94D601D4
:100050000C94D6010C941F180C94D6010C94D60164
:100060000C94D6010C94D6010C94D6010C94D601B4
:100070000C94D6010C94D6010C94D6010C94D601A4
:100080000C94D6010C94D6010C94D6010C94D60194
:100090000C94D6010C94D6010C94D6010C94D60184
:1000A0000C94D6010C94D6010C94D60129001E00A4
:1000B0001F0020002100220023002400250026002C
:1000C00027002D002E002A0049002B0014001A00E2
:1000D0000800150017001C0018000C001200130087
:1000E0002F00300031004C003900000004001600E1
:1000F000070009000A000B000D000E000F0033007E
:10010000340028004B00E10000001D001B00060029
:100110001900050011001000360037003800E50016
:1001200052004E00E000E300E2000000000000008A
:100130002C0000000000E600E400215250005100B5
:100140004F0035023A003B003C003D003E003F00BE
:10015000400041004200430044004500010001000E
:100160000100010001000100010001000100010087
:1001700046004700480001000100010001000100A5
:100180000000010001000100010001000100010068
:100190004A004B00010001000100010001000000C5
:1001A00001000100010001000100010001004D00FB
:1001B0004E000100010001000100010001000100EA
:1001C000000000000000010000000000010001002C
:1001D00001000100010001000A03770064003600FD
:1001E000360000000A0354004F0044004F00000096
:1001F0000403090409023B00020100A0FA090400FB
:10020000000103010100092111010001224400073E
:100210000581030800010904010001030000000931
:10022000211101000122B6000705820320000112FE
:1002300001000200000008EDFE00000001010200C4
:100240000105010902A10185020901A100050919A1
:10025000012908150025019508750181020501098C
:100260003009311581257F950275088106093815F9
:1002700081257F950175088106050C0A38021581D4
:10028000257F950175088106C0C005010980A1017F
:10029000850319012AB700150126B70095017510CD
:1002A0008100C0050C0901A101850419012AA002E1
:1002B000150126A002950175108100C005010906EF
:1002C000A1018506050719E029E715002501950814
:1002D000750181020507190029EF1500250195F028
:1002E000750181020508190129059505750191021D
:1002F000950175039101C005010906A101050719C2
:10030000E029E71500250195087501810295017521
:100310000881010507190029FF150026FF00950631
:1003200075088100050819012905150025019505A5
:1003300075019102950175039101C00011241FBE42
:10034000CFEFDAE0DEBFCDBF04B603FE18C0809168
:10035000C4029091C502A091C602B091C702873035
:10036000904BA740B04B59F41092C4021092C502B2
:100370001092C6021092C702E0E0F8E3099511E07E
:10038000A0E0B1E0E6E3F0E402C005900D92A839E8
:10039000B107D9F722E0A8E9B1E001C01D92A43C61
:1003A000B207E1F70E943B110C94C81F0C940000A7
:1003B0008230B8F46530A8F44F3098F4E42FF0E0C0
:1003C0009FE0699FE00DF11D11249BE4899FE00DE2
:1003D000F11D1124EE0FFF1FE455FF4F85919491FD
:1003E000089581E090E008950E94D801089581E089
:1003F00008950E94F701089581E008950E94F70191
:1004000008950E94FE01089508950E94040208952F
:10041000A6E0B0E0EEE0F2E00C94241F49835A839A
:100420009E8330919F0189819A8131111AC03E814A
:10043000332399F0222389F00E94AF07182F682FE9
:1004400089819A810E948B0769817A81812F0E941C
:100450009C0E2696E3E00C94401F0E949D07182FE7
:10046000F3CF0E94AF0769817A81F1CFFC01262F7B
:100470004081518162817381848195810E9408024B
:100480000895CF93DF93D82FC92F61E00E943602E1
:100490006D2F7C2F0E94F901DF91CF910895CF93AA
:1004A000DF93D82FC92F60E00E9436026D2F7C2F7A
:1004B0000E940502DF91CF91089581E008950E9486
:1004C0005D020895CF93C82F0E945D068C2F0E9475
:1004D0005F022FEF84E39CE0215080409040E1F7E1
:1004E00000C00000CF91089581E00E9462020E9446
:1004F0004318089580E00E9462020E9467180895E0
:100500000F931F93CF93DF938C0161E00E9436021B
:10051000EC01B8010E9401028823B1F1B801CE01BB
:100520000E945915882381F1B801CE010E947811EB
:10053000882351F1B801CE010E944D11882321F189
:10054000F8018581882381F0CA35FCE7DF0739F19E
:1005500078F4C130ECE7DE07F9F0C330FCE7DF07E1
:10056000C9F0C115DC4771F0C8010E94FC010DC043
:10057000CB35ECE7DE07B1F0CC35DC47A9F70E94BC
:10058000E30BF2CF0E94740280E0DF91CF911F91C4
:100590000F9108950E94F50B0E947A02F5CF0E94F8
:1005A000ED0BE2CF0E94F10BDFCF0E9463170E9498
:1005B000FC0208950E9400030E94681708950895A0
:1005C00081E008950895CF93DF93D82F0E94E00231
:1005D000C82F882319F08D2F0E94E2028C2FDF9103
:1005E000CF9108950895CF93C82F0E94DF028C2FDA
:1005F0000E94E302CF91089580E00E94F3020895E3
:100600000E949F150E94F3020895CF930E949F15A8
:10061000C82F80919A018C1779F0C0939A010E949B
:10062000F31760939B0170939C0180939D019093BD
:100630009E018C2F0E94F302CF910895ADE0B0E0AF
:10064000E4E2F3E00C94251F488759876A877B878B
:100650008C879D8791110E94EE0A1F8286E0FE0121
:100660003896DE01119601900D928A95E1F78D8101
:1006700081110DC029813A814B815C816D817E8120
:100680008F810E94340A2D96E2E00C94411FCE0126
:1006900001960E9441028111EDCFF5CFFC018481CA
:1006A000813021F4808191810E94E10708956623C1
:1006B00029F00E94E6120E94BC1308950E94441380
:1006C000FACFCF93C82F882399F08CEF8C0F813A03
:1006D00088F48C2F0E944216882329F08C2F0E94C8
:1006E000E7160E94860B8C2F0E94D0160E94860B64
:1006F000CF91089580E28C0F883048F4C77081E074
:1007000001C0880FCA95EAF70E94CF0AEFCF8BE5A8
:100710008C0F833038F42C2F2452330BC9010E94E4
:10072000D515E6CFE8E5EC0FEB3150F4F0E0EE0F35
:10073000FF1FE95EFE4F808191810E94FB15D8CF9B
:1007400083E38C0F8331A0F661E08C2F0E94570366
:10075000CFCF882381F19CEF980F913A28F40E9423
:10076000E7160E94860B089590E2980F983050F497
:10077000877091E001C0990F8A95EAF7892F0E944E
:10078000D50AEFCF9BE5980F933028F480E090E0F6
:100790000E94D515089598E5980F9B3128F480E0C4
:1007A00090E00E94FB15089593E3980F933118F49D
:1007B00060E00E94570308951F93CF93DF93182F93
:1007C000EB010E946103209739F4812F0E94A90355
:1007D000DF91CF911F9108958FE99FE00197F1F785
:1007E00000C000002197EFCF60E070E0893311F482
:1007F00060E570E00E94DC030895882321F00E94E8
:10080000CF0A0E94860B0895882321F00E94D50A02
:100810000E94860B0895A0E0B0E0E1E1F4E00C94C2
:100820001F1F6C01D62FC72FFC0115810681029571
:100830000F700E94C40AE82E8823F9F0E12E1123DC
:10084000E1F08C2F807F803461F080E28D0F883062
:10085000F0F08C2F807E803221F4D230C0F0002363
:10086000B1F080919E0282FF12C082E00E94B60B1E
:100870000E94C40A91E0E82EE926EC2FE295EF7081
:10088000C03CB0F5F0E0E653F04E0C940F1FE12CA5
:10089000F4CF0C2F0F70C03110F00295007F1123A0
:1008A00099F0002359F080E28D0F883010F0D111BB
:1008B00007C0802F0E94CF0A0E94860B8D2F51C047
:1008C000802F0E94E00AF8CF8D2F0E94A9030023F9
:1008D00079F080E28D0F883010F0D11104C0802FA4
:1008E0000E94D50A03C0802F0E94E60A0E94860B50
:1008F000EE2089F00E94C00A80FD0DC0F60115822D
:100900000E94BA0A0E94E806C6010E9424060E94BC
:10091000BA0A0E94F806CDB7DEB7E8E00C943B1F98
:10092000FC2FFF70FF2EC07FC03219F0F29480EFD1
:10093000F822DD2341F0D130D1F1112309F444C074
:100940000023F1F0BBCF80919E0282FD15C01123E0
:1009500059F0FF2029F08F2D0E94CF0A0E94860BAC
:1009600080E00E946103C4CF80E00E94A903FF20C1
:1009700009F4BECF8F2DB4CF112369F0011104C04B
:100980008F2D0E94FD03B4CF013009F0B1CF8F2D20
:100990000E94060BADCF0111ABCF8F2D0E94040436
:1009A0008F2D0E94120B8F2D0E94F50AA1CF1123CB
:1009B00021F0063008F09CCFE3CF053008F098CF47
:1009C0008F2D0E94040494CF0023D1F3D93349F42E
:1009D0002FEF87EE93E0215080409040E1F700C078
:1009E00000008D2F0E94A90383CF8C2F86958695BA
:1009F0008370882369F0813009F07ACF8D2F9C2F86
:100A00009370111102C080E090E00E94FB1570CF3E
:100A10008D2F9C2F9370111102C080E090E00E94F6
:100A2000D51566CF612F8D2F0E94570361CF8C2F74
:100A30008370811139C0111129C04D2F42954695FF
:100A40004770440F440F2D2F2F7030E0042E02C04A
:100A5000220F331F0A94E2F780E090E0D4FF09C030
:100A60008FE090E002C0880F991F4A95E2F78095C9
:100A70009095C695C695C370822B932BC23071F0AA
:100A8000C33079F0C13039F00E94B8060E949F153A
:100A90000E94F3022DCF0E94AF06F8CF0E94C1063C
:100AA000F5CF0E94AC06F2CF112361F1C0FFEECF6B
:100AB0004D2F429546954770440F440F2D2F2F70B0
:100AC00030E0042E02C0220F331F0A94E2F780E0C8
:100AD00090E0D4FF09C08FE090E002C0880F991F1A
:100AE0004A95E2F780959095C695C695C370822B7E
:100AF000932BC23069F0C33071F0C13031F00E94E5
:100B00002307C4CF823010F2D3CF0E941A07BECF82
:100B10000E942C07BBCF0E94D006B8CFCF70112304
:100B200039F08C2F0E94E8068D2F0E94FD03AECF76
:100B30008D2F0E9404048C2F0E94F806A7CFD23F6D
:100B400031F170F4D03FB9F0D13FB1F1112309F484
:100B500051C0002309F44BC08D2F0E94610396CF32
:100B6000D33FE1F0D43F21F11111F3CF011150C077
:100B70008C2F8F71E1CF112341F0053008F086CF23
:100B80008C2F8F710E940A0781CF0530F7CF8C2FF1
:100B90008F711111D1CF0E94E80678CF112329F06F
:100BA0008C2F8F710E94DC0671CF0E94D7066ECF0A
:100BB00080919E0282FD06C08C2F8F71112309F453
:100BC000BBCFE9CF112349F0CF718C2F0E94E806EB
:100BD00063E08C2F0E94980B59CF81E00E94B60BE6
:100BE000023008F453CF82E00E94B60B4FCF8C2F17
:100BF0008F71D1CF002309F4BBCFD93349F4EFEF84
:100C0000F7EE23E0E150F0402040E1F700C00000A3
:100C10008D2F0E94A9033ACF0F931F93CF93DF9399
:100C2000EC01688179818D810E94EE078C010E9420
:100C300035070E94AB06B801CE010E940B04DF917C
:100C4000CF911F910F910895CF93DF93EC018C8189
:100C5000882399F0CE010E948002811111C00E9468
:100C6000C40A882351F08D81882339F080919E0237
:100C700082FF03C082E00E94B60BDF91CF910895FE
:100C8000CE010E940C06CE010E944F02F6CF80E0FA
:100C900090E00E94D51580E090E00E94FB150E9434
:100CA000EE0A0E94860B0E94D9130E94BC1308957D
:100CB0000E94FE160E94470608950E94DD0A0E94C7
:100CC00058060895282F92959F70963091F060F401
:100CD000925F9F70923030F481E0203F79F030F4E1
:100CE000283E30F080E008959A5FF3CF243FD1F79B
:100CF000089581E0283EE0F3213FF9CF0895FC01FB
:100D00008481882339F0808191810E94E1070E94CB
:100D10006206089580E00895A6E0B0E0E2E9F6E01A
:100D20000C94251F2696E2E00C94411FA7E0B0E04A
:100D3000ECE9F6E00C94251F2796E2E00C94411FA5
:100D400008950E94A00608950E94A1069093CB01E9
:100D50008093CA01089508950E94A40608952091E1
:100D6000CA013091CB01822B932B0E94A4060895D7
:100D70002091CA013091CB01822393230E94A406C3
:100D800008952091CA013091CB01822793270E94B8
:100D9000A40608950E94A00608950E94CA06089518
:100DA0000E94CD069093C9018093C801089580E008
:100DB00090E00E94D006089521E030E0A90102C031
:100DC000440F551F8A95E2F7CA010E94D006089584
:100DD00021E030E002C0220F331F8A95E2F78091B4
:100DE000C8019091C901822B932B0E94D0060895CF
:100DF00021E030E002C0220F331F8A95E2F72095F0
:100E000030958091C8019091C901822393230E945B
:100E1000D006089521E030E002C0220F331F8A95EA
:100E2000E2F78091C8019091C901822793270E941F
:100E3000D00608952091C8013091C901822B932BCF
:100E40000E94D00608952091C8013091C9018223E3
:100E500093230E94D00608952091C8013091C901C2
:100E6000822793270E94D006089508959B016770FA
:100E700091E001C0990F6A95EAF763E036952795EE
:100E80006A95E1F7220F331F220F331FFA01E20F99
:100E9000F31F40E050E0682F70E08191DF0111976F
:100EA0009B01042E02C0369527950A94E2F7217023
:100EB00021952827292328272C934F5F5F4F443003
:100EC000510559F708959C01982F977083E0369546
:100ED00027958A95E1F7220F331F220F331FFB015D
:100EE000E20FF31F40E050E080E0219130E0092E56
:100EF00002C0369527950A94E2F721703327042E15
:100F000001C0220F0A94EAF7822B4F5F5F4F4430F3
:100F1000510559F70895282F862F953068F42F3002
:100F200058F4622F70E02FE0929F600D711D112424
:100F300040EA51E00E9436070895292F953068F461
:100F40008F3058F490E060EA71E03FE0239F800D1D
:100F5000911D11240E946307089580E00895A0E088
:100F6000B0E0E5EBF7E00C941E1F8C01E090C801A7
:100F7000F090C9018091CA019091CB01E82AF92A29
:100F8000CFE0D0E0CC24C394D12CC6010C2E02C0FB
:100F9000880F991F0A94E2F78E219F21892B49F42B
:100FA000219798F7B12C8B2DCDB7DEB7E9E00C94E3
:100FB0003A1FBC2EB8018C2F0E94A80E019781F316
:100FC000F2CFCF93DF93D82FC92F0E94AF076D2F99
:100FD0007C2F0E94A80EDF91CF9108951F93CF938D
:100FE000DF93162FD72F90919F01992341F0862FE1
:100FF000972F0E94E107DF91CF911F9108958823D9
:1010000081F0862F972F0E94AF07C82F682F812F5E
:101010009D2F0E948B07612F7D2F8C2F0E94A80E81
:10102000EACF862F972F0E949D07C82FF4CF0F93EA
:101030001F93CF93E091CC01C7E08091CD018E1337
:1010400004C0CF911F910F9108950E2F10E0CE9FF5
:10105000F0011124E253FE4F2081318142815381FE
:101060006481758186810E949606F8013196E77049
:10107000E4CF20910602309107024091080250917E
:10108000090260910A0270910B0280910C020E9489
:101090009606089580910C02803178F480910B02BD
:1010A000882359F0E091CC012091CD0130910702C5
:1010B0004091060257E02E1301C008956E2F70E094
:1010C0005E9FF0011124DF01A253BE4F14968C9154
:1010D0001497882361F111968C911197831327C07F
:1010E0008C91841324C015968C91159781111FC083
:1010F00012968D919C91A0910802B09109028A1BD1
:101100009B0B883C910598F480910C028F70806154
:1011100080930C02EC52FE4F80818F70806180833F
:1011200086E092E00E9424060E9417080895FB01C1
:101130003196E770C0CFE091CC019091CD0127E0CE
:10114000E91302C080E00895AE2FB0E02E9FF001B9
:101150001124E253FE4F3181361306C0308138131B
:1011600003C03581341304C0FD013196E770E8CF28
:1011700081E008958F929F92AF92BF92DF92EF929B
:10118000FF920F931F93CF93DF93CDB7DEB72D97C9
:101190000FB6F894DEBF0FBECDBF8C0186E0F8011C
:1011A000DE01189601900D928A95E1F7F801E08032
:1011B000F580A280B380848196E0892E92E0992EFA
:1011C00090910A0291111BC0882309F4FCC0FF20F2
:1011D00009F43DC1C8010E947F06882309F437C184
:1011E00087E0F801D40101900D928A95E1F7C401DE
:1011F0000E944E030E944A080E943908E4C0D09021
:101200000B022091080230910902A501421B530BE9
:10121000DD2009F4DBC0483C510508F0A6C0882356
:1012200009F4D1C090910702918080910C02803125
:1012300008F06BC0991228C0909106029E1124C03C
:10124000F1105DC08F70806180930C020E9439089C
:1012500086E092E00E94240680910C02F8018683C9
:10126000F12C8F2D2D960FB6F894DEBF0FBECDBF9B
:10127000DF91CF911F910F91FF90EF90DF90BF9082
:10128000AF909F908F900895F11039C040E0692D84
:101290008E2D0E949B0840E0692D8E2D0E949B0898
:1012A000F82E8111DDCF888599850E94E107292FCD
:1012B00022952F70903450F49F70223080F0992343
:1012C00099F0F8019681903178F4CBCF2A5F2F7096
:1012D000223078F0C8010E942406FD2CC2CF992349
:1012E00019F0882309F4BDCF805E883008F4B9CFA7
:1012F000F1CF803F08F4B5CF815F8230F7CF809186
:101300000C02816080930C02ABCF991207C09091C0
:1013100006029E1103C0FF2009F479C0C8010E9493
:101320007F06882309F493C0FF2009F490C08091C0
:101330000C02803288F020910602309107023A8335
:101340002983BC82AB8290910A029D831E828F8387
:10135000CE0101960E94240687E0F801A6E0B2E0E3
:1013600001900D928A95E1F745CF90910C02903152
:10137000A0F4488559856A857B858C859D850E946A
:101380008C0686E092E00E94240687E0F401119228
:101390008A95E9F70E94390863CF8823A1F020914C
:1013A000070281812813BACF809106028E11B6CF31
:1013B000F110B4CF9683C8010E94240687E0F4019F
:1013C00011928A95E9F7FF24F3944BCF483C5105DD
:1013D00008F041C08823B9F3FF20C9F190910702BA
:1013E000818198132AC0809106028E1126C08091B7
:1013F0000C0280FD19C08031B8F08683807F803F69
:1014000039F08681982F907F905F8F70892B86832B
:10141000C8010E94240687E0F801A6E0B2E001902E
:101420000D928A95E1F7E8CE87E0F801A6E0B2E0F8
:1014300001900D928A95E1F7C6CFC8010E947F0600
:1014400081118ACF80910C02816080930C02C801C7
:101450000E942406B8CF488559856A857B858C858E
:101460009D850E948C0691CFAEE0B0E0EAE3FAE001
:101470000C94241F288739874A875B876C877D8770
:101480008E87CE0108960E94BA088823B1F06C8539
:10149000662341F0288539854A855B857D858E8563
:1014A0000E94960617E08091CC019091CD0189139E
:1014B0003EC02E96E3E00C94401F87E0FE01389674
:1014C000DE01119601900D928A95E1F72091CD01F0
:1014D0004091CC018C85882329F330E0C901019625
:1014E0008770992750E08417950799F097E0929FAD
:1014F000D001939FB00D1124A253BE4FFE0131962F
:1015000001900D929A95E1F78093CD010E94170802
:10151000C9CF0E945D061092CD011092CC0187E0E8
:10152000E6E0F2E0DF011D928A95E9F7BBCF189F54
:10153000C001112482539E4F0E94BA08882309F4E7
:10154000B8CFE091CC011E9FF0011124E253FE4F71
:1015500020813181428153816481758186810E941D
:1015600096068091CC0190E0019687709927809330
:10157000CC0199CF80913502869586958695089500
:10158000809135028770089590913502977081E0BF
:10159000911101C080E008958091610208959091B9
:1015A0006102982B909361020895982F90958091F5
:1015B0006102892380936102089510926102089567
:1015C00090916002982B909360020895982F9095C7
:1015D00080916002892380936002089510926002D6
:1015E000089508950E94F10A089590913602292FD6
:1015F0002823222331F080958923809336020E948C
:10160000F20A089508950E94020B089590913702FE
:10161000292F2823281729F0982B909337020E940E
:10162000030B089590913702292F2823222331F0AC
:1016300080958923809337020E94030B089580913F
:101640003702882329F01092370280E00E94030BB2
:101650000895CF93DF93C091610280916002C82BFF
:10166000D0913702DD2331F00E94211681110E94B2
:101670001F0BCD2B8C2FDF91CF910895CF93DF934C
:10168000C0910201D09103010E94290B8883C0916F
:101690000201D091030148E050E06DE272E0CE011A
:1016A0000E94601F892B59F088E0FE01ADE2B2E094
:1016B00001900D928A95E1F7CE010E94AC15DF9161
:1016C000CF910895CF93DF93C0910001D091010194
:1016D0000E94290B8983C0910001D091010140E251
:1016E00050E06DE072E0CE010E94601F892B59F03E
:1016F00080E2FE01ADE0B2E001900D928A95E1F743
:10170000CE010E94B715DF91CF9108958091160107
:10171000882339F080919D0287FF03C00E94620BED
:1017200008950E943E0B089508950E94940B089519
:1017300090919E0292FF11C098E0899F9001112420
:10174000622B609335020E94E806809135028695EF
:10175000869586950E94950B08950E94E806089547
:101760001092350280E00E94950B08959091350209
:101770008095892380933502282F277021110DC071
:10178000891759F090919E0292FF07C08695869521
:1017900086950E94F8060E94B00B089590919E02D3
:1017A00092FB222720F9281769F080FB92F9909389
:1017B0009E0280919D0290919E020E94160C82E0F2
:1017C0000E94B60B089580919E0282FB882780F9C3
:1017D00091E089270E94CE0B089581E00E94CE0BF4
:1017E000089580E00E94CE0B08956FEF7FEF80E0B8
:1017F00090E00E94B21F089580E090E00E947E1F5A
:101800009C0181E0263E3E4F09F080E0089582E091
:1018100090E00E94761F089583E090E00E94761F7A
:10182000089584E090E00E947E1F0895BC0184E04A
:1018300090E00E94B21F0895AB01BC018FE090E0E0
:101840000E94A61F0895AB01BC0183E190E00E94B5
:10185000A61F089560E070E0CB010E94230C08955C
:1018600060E070E0CB010E941C0C0E942A0C0895DD
:10187000A8E0B0E0EEE3FCE00C94251F66EE7EEFFE
:1018800080E090E00E94B21F60E082E090E00E9461
:10189000941F81E090E09093CB018093CA0161E0B6
:1018A00083E090E00E94941F60E074E184E090E0A7
:1018B0000E94B21F60E086E090E00E94941F6FEFEC
:1018C00087E090E00E94941F40E050E0BA0188E079
:1018D00090E00E94A61F60E084E290E00E94941FC6
:1018E00060E087E190E00E94941F60E08CE090E06F
:1018F0000E94941F60E08DE090E00E94941F198286
:101900001A821B821C821D821E821F82188648E05A
:1019100050E068E170E0CE0101960E94841F40E033
:1019200050E0BA0180E290E00E94A61F0E94300CB5
:101930002896E2E00C94411F0E94380C0895682F0D
:101940008EE090E00E94941F0895A6E0B0E0EBEADC
:10195000FCE00C94231F0E94E7178C018091620227
:10196000909163028017910779F019821A820E9480
:10197000E717BC0149815A8180E090E00E941E0374
:1019800010936302009362022696E4E00C943F1FDA
:101990000E94F31760937202709373028093740233
:1019A0009093750260936E0270936F028093700241
:1019B000909371020895089508950E94DB0C089594
:1019C00008950E94E00C089580EA9FE00E9448116B
:1019D0000E94DC0C0E94DD0C089581E008950E94B5
:1019E000ED0C08950E94ED0C0895089508950E944D
:1019F000F50C0E94F60C08950E94BF0F0E94F2029F
:101A000008950E94DE170E9498100E94FC0C0E940C
:101A1000E10C0895A6E0B0E0E0E1FDE00C94191FB0
:101A20000E94EF0C81110AC00E94A50C0E94FA13BB
:101A30000E9405032696EEE00C94351F0E94AE101E
:101A400024E6822E22E0922E640110E0F601E1905D
:101A5000F1906F01812F0E94E50F1F5F153009F48F
:101A60004DC0E816F90691F38091760281FD0E943F
:101A7000EE0F0E94F20C782EF12C662463948F2DC9
:101A80000E94E50F8C01F401A190B1904F018A15DD
:101A90009B0569F1A826B926E12CCC24C394D12C4E
:101AA000C5018C219D21892BC1F07720B1F0E982FD
:101AB000FA820E94E7179C838B836D8221E0C80124
:101AC0008C219D21892B09F420E049815A816B8169
:101AD0007C818D81922F0E941E03E394CC0CDD1C2F
:101AE000FFE0EF12DDCFF401329711830083F3940E
:101AF00085E0F812C4CF0E94C80C98CFE816F9060A
:101B000009F0B2CF91CF1F93CF93DF930E94AD0E18
:101B1000EC01811522E5920708F053C0811540E5DC
:101B2000940708F0DDC0803E9105F8F48D3C9105E6
:101B300008F0AEC0883A910580F4853A910508F026
:101B400099C08130910521F00497813A910550F4B4
:101B5000CE01DF91CF911F910895885A91094B973B
:101B600008F48BC0C0E0D0E0F3CF811550E49507B6
:101B7000F8F4C11580E2D80708F0CBC0C83ED10503
:101B800038F3CE019A9581159F4160F78D2F0E9401
:101B9000510F182FCE0199270E94AD0E212F30E052
:101BA000322F2227E901CC27DF71C82BD92BD0CFC8
:101BB00099270E94AD0ECC27DF70C82BD92BD06A95
:101BC000C7CF803842E59407C8F5803652E59507BF
:101BD00008F067C0C03482E5D807B0F08C2F869536
:101BE0008695877020E2829FC0011124C37021E096
:101BF00030E0A90102C0440F551FCA95E2F7EA017F
:101C0000C82BD92BDC68A4CFC03252E5D50708F029
:101C100041C08C2F8695869520E2829FC0011124B9
:101C2000C37021E030E0A90102C0440F551FCA95DE
:101C3000E2F7EA01C82BD92BDD688ACF803C52E558
:101C4000950760F48F71C03AD24508F03FC090E02C
:101C5000982F8827EC01C46FD06A7ACF805C9245B8
:101C6000809708F07FCFDC2FCC27CC27DF71C06FA7
:101C7000D06A6ECFA497D0646BCFC85AD0E0CC0F97
:101C8000DD1FC35BDE4F0990D881C02DD46460CFC7
:101C9000D0655ECFCF71D0E0DC2FCC27C16FD06A8A
:101CA00057CF86958695877020E2829FC0011124C8
:101CB000C37021E030E0A90102C0440F551FCA954E
:101CC000E2F7EA01C82BD92BDA6842CF0E94510F04
:101CD000C82FD0E0DC2FCC27CC27DF71D06238CFE3
:101CE0008F710E94510F65E0D695C7956A95E1F70F
:101CF000CF70D0E0DC2FCC27282F30E084FF05C048
:101D000054E0220F331F5A95E1F7C22BD32BD06931
:101D10001FCF8D2F8F710E94510F182FCE01992741
:101D20000E94AD0E212F30E0322F222722273F7153
:101D3000282B392BE901D2CF462F672F753028F495
:101D40004F3018F40E94F401089580E090E0089567
:101D50000E949C0E0E94830D0895803E9105D1F152
:101D6000C8F48133910509F47FC048F489329105A4
:101D700009F46FC08A32910509F47DC00895893352
:101D80009105E1F082389105C9F08533910509F498
:101D90005BC00895843E9105D1F148F4823E9105DF
:101DA00031F1833E910541F181EE90E00895863E48
:101DB0009105C1F1873E9105E1F1089520919D02C1
:101DC0002370211165C020919E0223FF14C089E277
:101DD00090E0089520919D0220FD43C030919E0225
:101DE00030FF09C024FF4EC080E090E008952091AC
:101DF0009D0222FDF7CF089520919D0222FD45C04E
:101E000030919E0230FD44C024FFF5CFEDCF2091EC
:101E10009E0221FFF0CF80919D0284FDE5CF87EEE9
:101E200090E0089520919D0223FFE5CF24FDDCCFB3
:101E3000F6CF20919D0223FD2EC030919E0231FFEE
:101E4000E3CF84EE90E0089520919D0225FFD3CF4B
:101E5000BECF20919D0225FD21C020919E0223FF2F
:101E6000CACF89E390E0089520919D0226FFC3CF59
:101E70008AE290E0089520919D0226FFBCCF81E385
:101E800090E0089583EE90E0089582EE90E008954A
:101E900080EE90E0089586EE90E0089585E390E06E
:101EA000AACF90919D0292FF10C041E0282F24718B
:101EB000243009F040E031E0282F2871283009F063
:101EC00030E0431711F02CE0822793FF10C041E06F
:101ED000282F2471243109F040E031E0282F2871A7
:101EE000283109F030E0431711F02CE082273091BF
:101EF0009E0230FF10C051E0282F2171213009F0DF
:101F000050E041E0282F2871283009F040E05417B4
:101F100011F029E0822731FF10C041E0282F217104
:101F2000213109F040E031E0282F2871283109F0F3
:101F300030E0431711F029E0822794FD877E089551
:101F400080E008950E94F50B08950E94AE102FEFD7
:101F500086E791E0215080409040E1F700C000000A
:101F60000E94AE1080E00E94E50F80FF04C00E9436
:101F7000A20F0E94431808950E94A50F08950E9481
:101F8000FC0B811102C00E949C0C0E94070C8093E4
:101F900076020E94110C90939E0280939D020E94F3
:101FA000BC0F0E940C0C90E00E94AC068091C8010E
:101FB0009091C9010E94CD06089508950E94DD0FF9
:101FC000089508950E94E10F0895E82FF0E0EE0FC4
:101FD000FF1FE755FD4F808191810895089580EAA4
:101FE0008A95F1F7089500C008950E94EF0F0895B3
:101FF000F894E82FE295EF70F0E041A18F7021E0B6
:1020000030E0B90102C0660F771F8A95E2F7CB0175
:10201000962F9095942391A392A1892B82A37894D3
:1020200008950F931F93CF93DF93C2E9D1E0899175
:102030008F3F11F00E94F80F81E0C739D807B9F738
:10204000C3E8D1E002E911E089918F3F11F00E94CD
:10205000F80F0C171D07C1F7DF91CF911F910F915A
:102060000895A0E0B0E0E7E3F0E10C941E1FEC015E
:10207000B62E062F10E0C8018E569E4F7C01FC0143
:1020800080818F3F09F44FC0F894E82FE295EF70FC
:10209000F0E091A18F7021E030E001C0220F8A951D
:1020A000EAF7892F822B81A382A12095282322A3DE
:1020B00078940E94F30FE3E8F1E041E050E0C12C96
:1020C000D12C21912F3F89F0A22FA295AF70A05E55
:1020D000B0E08C9190E02F7002C0959587952A957D
:1020E000E2F781709A01882311F020E030E0C22AE3
:1020F000D32A440F551F81E0E239F80711F7F701A1
:1021000080818F3F11F00E94F80F61E0C114D1046B
:1021100009F460E08B2D0E94F50F000F111FC00F16
:10212000D11FD982C882CDB7DEB7E9E00C943A1F3F
:102130000E9411108AE0E9EAF2E0DF01982F1D9277
:102140009A95E9F7EFE9F2E0DF011D928A95E9F748
:1021500085E00E94EB100E94DE0F0895AAE0B0E037
:10216000E4EBF0E10C94221FFE0131968AE0DF01DE
:102170001D928A95E9F710E0FE2E0F2F612F8F2D0B
:10218000902F0E9431101F5F1530C1F74AE050E0D8
:102190006F2D702F8FE992E00E94601F21E0892B44
:1021A00081F420E045E069EA72E08FE992E00E9464
:1021B000EC10182F0E94E20F812F2A96E5E00C9474
:1021C0003E1F8AE0EF2DF02FAFE9B2E001900D92B3
:1021D0008A95E1F7E7CF0895A0E0B0E0E2EFF0E103
:1021E0000C941F1FD82EE92EF62ED72F042FC22FA6
:1021F000222379F081E0809379020E94E71790937F
:1022000078028093770280E0CDB7DEB7E8E00C94E7
:102210003B1FC0907902CC20B1F38091770290915E
:1022200078020E941018059770F310E0000F111F3C
:10223000A8016D2D7E2D8F2D9D2F0E94601F892B53
:1022400041F0A8016D2D7E2D8F2D9D2F0E946D1FB9
:10225000CC2D109279028C2FD7CF0E94D5190E94D5
:10226000010D0E94E21908950E94E7190E940A0DCB
:102270000E94011A08950E9480170E94BB190E94B3
:10228000E40C0E942D110E9434110E94F70CFBCF28
:1022900090939901809398010895CF93DF93EB0178
:1022A00086319C4719F50E94CC0A9D819923A1F0A3
:1022B0008A7A91E0811101C090E090937A0288239C
:1022C00049F085E30E94D0160E94860B80E0DF91E2
:1022D000CF91089589E2F6CF80917A02882321F088
:1022E00085E30E94E716F0CF89E2FBCF81E0EFCFD4
:1022F000CF93DF93EC01FB018581882309F4D2C0E1
:102300009E0130572332310508F0B2C00E94110CF3
:1023100090939E0280939D02FE01E150F047E232CD
:10232000F10520F4EA52F04E0C940F1F80919D02AB
:10233000816080939D0293C080919E02886080930B
:102340009E028DC080919D028260F3CF80919D029C
:102350008460EFCF80919D028860EBCF80919E02D8
:102360008160EDCF80919E028260E9CF80919D02D5
:102370008061DFCF80919D028062DBCF80919D02E2
:102380008064D7CF0E945D0680919D028068D1CF86
:1023900080919D028C60CDCF80919E028360CFCFD3
:1023A00080919D028E7FC5CF80919E02877FC7CF8F
:1023B00080919D028D7FBDCF80919D028B7FB9CF93
:1023C00080919D02877FB5CF80919E028E7FB7CF8F
:1023D00080919E028D7FB3CF80919D028F7EA9CF89
:1023E00080919D028F7DA5CF80919D028F7BA1CF93
:1023F0000E945D0680919D028F779BCF80919D0208
:10240000837F97CF80919E028C7F99CF80919D0290
:1024100082FB992790F921E0922790FB82F990FBAB
:1024200083F987CF80919E02982F909591708E7F2F
:10243000892B90FB81F983CF90919D02892F8F7B0F
:1024400096FF806476CF0E945D0690919D02892F51
:1024500097FB87F980586DCF81E00E949F0C809197
:102460009D0290919E020E94160C0E945D0680E0E3
:10247000DF91CF91089580E0F0CF90919D02892F58
:102480008F7E94FF806155CF90919D02892F8E7F22
:1024900090FF81604ECF90919E02892F877F93FF9E
:1024A00088604DCF81E0E4CF282F35EB2303C001B6
:1024B000112497FF04C080589109892F08958058EE
:1024C0009F4FFBCF8091810280FF0DC06091090179
:1024D00070E0660F771F60387105C0F561157105F2
:1024E000B9F1862F089581FF07C06091090184E04A
:1024F000689FB0011124EFCF82FF04C060910901F1
:1025000088E0F6CF809180028823E9F0909108015D
:102510006091090170E0891730F093E0660F771F32
:102520009A95E1F7D8CF869F9001879F300D1124AF
:1025300083E0220F331F8A95E1F7692F70E0C9010C
:102540000E94FB1EC8CF68E070E0CBCF8FE70895F4
:1025500081E008958091810280FF0CC060910501A7
:1025600070E075956795759567956115710561F1D1
:10257000862F089581FF06C06091050170E0759572
:102580006795F3CF6091050170E082FD15C0209141
:102590007F022223B1F0909104016091050170E067
:1025A000291750F4269FA001279F500D1124692F51
:1025B00070E0CA010E94FB1E60387105B0F28FE71F
:1025C000089561E070E0D4CF81E008959091840295
:1025D00020918502922B20918702922B20918602D6
:1025E000922B992331F098E09093800291E09093A0
:1025F0007F028D3C31F40E946212819580938502A6
:102600000895E2E3E80FE231B0F5F0E0E850F04E73
:102610000C940F1F0E946212F1CF0E9462128195EA
:102620008093840208950E946212FACF0E94AA1237
:102630008093860208950E94AA128195F9CF0E9484
:10264000AA1281958093870208950E94AA12FACF58
:10265000815D990B21E030E001C0220F8A95EAF7F5
:1026600080918302822B809383020895809181025E
:102670008160809381020895809181028260F9CF08
:10268000809181028460F5CF409184028D3C59F4A1
:102690008091850287FF0DC010928502442359F472
:1026A0001092800208C08E3C81F480918502181639
:1026B0009CF3442381F08091860290918702892BBC
:1026C000811159C010927F0208958F3C41F447FF59
:1026D000F0CF10928402809185028823E0CF803D64
:1026E00019F41416B4F3E5CF90918602893D29F4CC
:1026F0001916FCF610928602DCCF8A3D19F497FF7A
:10270000D8CFF8CF909187028B3D29F497FFD1CF96
:1027100010928702CECF8C3D19F41916CCF3C9CF95
:102720009FE2980F983090F4815D990B21E030E0A2
:10273000B90102C0660F771F8A95E2F7CB01809539
:1027400090918302892380938302B3CF8D3D31F42E
:10275000809181028E7F80938102ABCF8E3D21F4E8
:10276000809181028D7FF7CF8F3D09F0A2CF8091BC
:1027700081028B7FF0CF08950E94E7172091840299
:1027800030918502232B222321F080937D029093A8
:102790007E022091860230918702232B222321F092
:1027A00080937B0290937C0282E892E00E94C6159F
:1027B000089586E0E2E8F2E0DF011D928A95E9F7EC
:1027C0001092800210927F02109281020895FC0103
:1027D000828181110DC0838181110AC084818111A0
:1027E00007C081E09581911101C080E0817008955A
:1027F00081E0FCCFA6E0B0E0E0E0F4E10C94221F21
:1028000086E0E2E8F2E09E012F5F3F4FD9010190A0
:102810000D928A95E1F7109284021092850210922F
:102820008602109287028B819C81892B89018823E3
:1028300091F080917D0290917E020E9410189C017F
:10284000809180028823C9F140910A0150E042172B
:10285000530708F43FC08D819E81892B882399F00E
:1028600080917B0290917C020E9410189C018091C3
:102870007F02882309F467C04091060150E04217A7
:10288000530708F46EC0B80182E892E00E9418175E
:10289000811105C082E892E00E94E71381110E9435
:1028A000BC1386E0F801A2E8B2E001900D928A958F
:1028B000E1F72696E5E00C943E1F40910B019AE06B
:1028C000499FA00111244217530728F68F5F809378
:1028D000800202C08F3FD1F7FB80FF2059F00E9499
:1028E000621291E01F140CF09FEF899F802D11243C
:1028F00080938402FC80FF2059F00E94621291E0D4
:102900001F140CF09FEF899F802D11248093850266
:1029100080918402882309F49ECFF0908502FF20E5
:1029200009F499CF0E945412811101C081E0809373
:1029300084028F2D0E945412882319F080938502FF
:102940008ACF81E0FBCF409107019AE0499FA00127
:1029500011244217530708F096CF8F5F80937F02B0
:1029600002C08F3FD1F7FD80FF2059F00E94AA12CC
:1029700091E01F140CF09FEF899F802D112480930C
:102980008602FE80FF2059F00E94AA1291E01F14D7
:102990000CF09FEF899F802D1124809387028091F6
:1029A0008602882309F46FCFF0908702FF2009F494
:1029B0006ACF0E945412811101C081E08093860287
:1029C0008F2D0E945412882319F0809387025BCFC9
:1029D00081E0FBCF0F931F93CF93DF93C42FD22FB0
:1029E000FC0185818823C9F040938A020E94E71781
:1029F000909389028093880280E28C0F883040F4A3
:102A0000C77081E001C0880FCA95EAF70E94FD03F4
:102A1000DF91CF911F910F91089510918A021413A5
:102A20003CC080918802909189020E941018883CD5
:102A3000910598F5C0E2CD0F1D1741F180E2810F9D
:102A4000883040F4177081E001C0880F1A95EAF7CA
:102A50000E940404C83020F0802F0E94F403D8CFD5
:102A600091E08D2F877001C0990F8A95EAF7892F21
:102A70000E94FD03802F0E94F403D77081E001C003
:102A8000880FDA95EAF70E940404C2CF802F0E94D3
:102A9000F403C83008F0BCCFF0CF80E28C0F883050
:102AA00008F0B6CFC77081E001C0880FCA95EAF779
:102AB000EACF0F93FC01CB01E851FC47E730F10569
:102AC00090F5E65FFF4D0C940F1F06E221EE41EEFC
:102AD0006AE17CE70E94EA1480E00F91089507E222
:102AE00025EE45EE6BE17CE7F5CF06E221EE40EE08
:102AF00068E17CE7EFCF07E225EE44EE69E17CE791
:102B0000E9CF06E221EE42EE6CE17CE7E3CF07E29B
:102B100025EE46EE6DE17CE7DDCF08E221E045EEF3
:102B20006EE17CE7D7CFFB018581811110928A028B
:102B300081E0D3CF9093900280938F020895E0912B
:102B40008F02F0919002309729F00190F081E02DF2
:102B50000995089580E00895E0918F02F091900228
:102B6000309721F00280F381E02D09950895DC0172
:102B7000E0918F02F0919002309739F086E08C93CB
:102B80000480F581E02DCD0109950895DC01E091E7
:102B90008F02F0919002309739F082E08C9306809A
:102BA000F781E02DCD0109950895A3E0B0E0EBEDAC
:102BB000F5E10C94251F9C0180918D0290918E026D
:102BC00082179307A1F030938E0220938D02E0913B
:102BD0008F02F0919002309751F083E089833B831C
:102BE0002A830084F185E02DCE0101960995239674
:102BF000E2E00C94411FA3E0B0E0E1E0F6E10C94C8
:102C0000251F9C0180918B0290918C028217930763
:102C1000A1F030938C0220938B02E0918F02F0910F
:102C20009002309751F084E089833B832A830084AB
:102C3000F185E02DCE01019609952396E2E00C94F2
:102C4000411F20910201309103012E5F3F4F80917F
:102C500016018823A9F080919D0287FF11C0209161
:102C60000001309101012E5F3F4F9DE180E0F901AD
:102C700040812F5F3F4F41118F5F9150C0F7089502
:102C800095E0F4CF882321F190911601992311F159
:102C900090919D0297FF1EC0982F969596959695B8
:102CA000803FB0F4E0910001F0910101E90FF11DC6
:102CB000228130E0877041E050E0BA0102C0660F27
:102CC000771F8A95E2F72623372381E0232B91F49F
:102CD00080E008952091020130910301F9013296BC
:102CE000285F3F4F9191981721F0E217F307D1F732
:102CF000EFCF81E008959C01FC0132968FEF90E0C8
:102D00004191461751F08F3F19F4411101C0892FAD
:102D10009F5F9630A9F78F3F09F40895280F311D62
:102D200087FD3A95F901628308959C01FC01329672
:102D3000285F3F4F8191861303C0DF0111971C92DA
:102D4000E217F307B9F70895FC01862F869586955B
:102D50008695603F60F4E80FF11D677021E030E078
:102D600001C0220F6A95EAF78281822B828308953F
:102D7000FC01862F869586958695603F80F4E80F46
:102D8000F11D677081E090E09C0102C0220F331FAB
:102D90006A95E2F7B901609582816823628308959C
:102DA000682F80911601882359F080919D0287FF3A
:102DB00007C080910001909101010E94A41608951E
:102DC00080910201909103010E947B160895682F63
:102DD00080911601882359F080919D0287FF07C0DA
:102DE00080910001909101010E94B8160895809190
:102DF0000201909103010E94951608958091160199
:102E0000882379F080919D0287FF0BC0E09100013B
:102E1000F091010132968EE1DF011D928A95E9F76A
:102E20000895E0910201F0910301329686E0F4CF1B
:102E3000DC01FB0111969C9111978181981322C0AE
:102E400012968C911297882319F0928189131AC0D7
:102E500013968C911397882319F09381891312C0CC
:102E600015968C911597882319F0958189130AC0BE
:102E700014969C91992321F081E02481291303C0A9
:102E800080E001C081E08170089508950E94451797
:102E900008958F5F809391020E944617089583E002
:102EA000809391020E94461708950E944917089541
:102EB00081E0809391020E94461708950E9458175E
:102EC0000895089508950E94621708950895089539
:102ED0000E9461170895CF930E9466170E94AE105A
:102EE0000E946717C0E08C2F0E94E50F892B31F4F8
:102EF000CF5FC530C1F780E0CF91089581E0FCCF6E
:102F000085B7806885BF85B7806885BF08951F92A3
:102F10001FB61F9211248F939F93AF93BF938091FD
:102F20009202811113C08091B3029091B402A091DA
:102F3000B502B091B6024196A11DB11D8093B302B6
:102F40009093B402A093B502B093B602BF91AF9133
:102F50009F918F911F901FBE1F9018958091BB026B
:102F6000843031F10E94D5021092920288E190E003
:102F700020E40FB6F894A895809360000FBE2093CC
:102F8000600083B7817F846083BF83B7816083BF24
:102F90007894889583B78E7F83BF0FB6F894A895F1
:102FA00080916000886180936000109260000FBE85
:102FB00008950E945D060E94DA02089582E084BDB1
:102FC00093E095BD9AEF97BD80936E0008952FB75B
:102FD000F8948091B3029091B402A091B502B0919F
:102FE000B6022FBF0895A4E0B0E0E9EFF7E10C943A
:102FF000251F8FB7F8942091B3023091B40240910D
:10300000B5025091B60229833A834B835C838FBF0C
:1030100069817A818B819C812496E2E00C94411F26
:103020009C014FB7F8948091B3029091B402A091A3
:10303000B502B091B6024FBF821B930B08957894EE
:103040001F921FB61F9211248F939F93AF93BF932C
:103050008091B3029091B402A091B502B091B602F2
:103060000196A11DB11D8093B3029093B402A09369
:10307000B502B093B602BF91AF919F918F911F900F
:103080001FBE1F90189581E08093E00080E280933E
:10309000D8001092C9008FE19EE40197F1F700C0BB
:1030A000000087E090EBDC018093C4029093C5029E
:1030B000A093C602B093C70288E19CE00FB6F894D3
:1030C000A895809360000FBE90936000FFCF88E1C9
:1030D0009CE00FB6F894A895809360000FBE909383
:1030E0006000FFCF80919B020895282FCB01BA0189
:1030F0003091BB023430E1F42F702093E9002FEFC0
:103100003091E80035FD07C035ED3A95F1F7000044
:1031100021502111F5CF2091E80025FF09C040E0A2
:1031200050E00E94791A8091E8008E778093E80041
:103130000895BC0143E050E082E00E9475180895B4
:10314000BC0146E050E082E00E9475180895BC0181
:1031500040E250E082E00E9475180895CF93DF931B
:10316000D82FC92F48E050E0682F792F81E00E94C6
:10317000751888E0ED2FFC2FA3E9B2E001900D92C5
:103180008A95E1F7DF91CF9108958091BA0281117C
:1031900009C00E94011C0E945E1C8091E2008460B4
:1031A0008093E20008951092BA0208950E94581781
:1031B00008956091B70281E0611101C080E00E9432
:1031C0004F1708959091BB0281E0943009F080E0A0
:1031D0006091B7020E945517089542E061EC81E0CA
:1031E0000E947D1B42E261EC82E00E947D1B909177
:1031F000BB0281E0943009F080E06091B7020E9448
:10320000491708958091BD02893089F148F48230D0
:1032100009F4A0C0833009F45AC0813041F0089508
:103220008A3009F487C08B3009F46CC0089580910E
:10323000BC02813A09F04AC08091E800877F809300
:10324000E8008091C0029091C102892B61F060E09A
:1032500080E090E070E00E94C81A8091E8008B77CF
:103260008093E800089568E083E992E0F3CF8091CD
:10327000BC02813259F58091C0029091C10202973F
:1032800028F58091E800877F8093E8008091E8002E
:1032900082FF18C09091F3008091F200029731F400
:1032A0008091F100813011F0863021F48091F1009D
:1032B00080939B028091E8008B778093E8000E94C6
:1032C000B11B04C08091BB028111E0CF08958091B1
:1032D000BC02813AD9F78091C0029091C102892B3A
:1032E000A9F78091E800877F8093E8008091E8004B
:1032F00080FFFCCF809116018093F1008091E8005F
:103300008E77DBCF8091BC02813201F78091C002C1
:103310009091C102892BD1F68091E800877F80933C
:10332000E8000E94B11B8091BE02809316010E94AA
:103330005D0608958091BC02813241F68091E800DB
:10334000877F8093E8000E94B11B8091BF02809329
:103350009C0208958091BC02813A09F0B7CF809118
:10336000E800877F8093E8008091E80080FFFCCF31
:1033700080919C02C1CF84B7877F84BF0FB6F89439
:10338000A895809160008861809360001092600031
:103390000FBE80E890E00FB6F894809361009093A0
:1033A00061000FBE0E945E1708950E94011C0E94DA
:1033B0005E1CE2EEF0E080818460808378940E945D
:1033C000E11E08958CE091E00E949A150895809185
:1033D000BB02853031F48091BB02853019F00E9428
:1033E000D91708950E94AE178091B902882399F3E6
:1033F0000E946B17882379F30E94631A0E945D066E
:10340000EACF08959A014091C2025091C3020E94EE
:103410000A1A0895AC01CB01D901252F3327233097
:103420003105E1F058F421303105C9F12230310580
:10343000D9F180E090E020E030E01EC0213231057B
:1034400021F122323105A9F7892BC1F161307105D3
:1034500081F786EB90E021E432E00EC0CA019927A3
:10346000413069F08230910569F0E0EFF1E0892B9D
:1034700001F7849190E09F012D933C930895E4EE31
:10348000F1E0F7CFE8EDF1E0F4CF892B91F0613076
:10349000710579F689E090E02FE132E0EDCF82E12D
:1034A00090E02FE232E0E8CF8BE390E024EF31E0D0
:1034B000E3CF89E090E026E032E0DECF84E490E0E4
:1034C00027EF32E0D9CF80E189BD82E189BD09B41F
:1034D00000FEFDCF8091D8008F7D8093D800809131
:1034E000E00082608093E0008091E00081FDFCCFED
:1034F0000895AF92BF92CF92DF92FF920F931F93E6
:10350000CF93DF936C01EB018A010E94D01BF82E50
:10351000811123C00115110539F0F80180819181D5
:10352000C81BD90BC80ED91EA12CB12C2097A9F00D
:103530008091E80085FD22C08091E8008E7780931D
:10354000E80001151105A1F0F801808191818A0D33
:103550009B1D9183808385E0F82E8F2DDF91CF9185
:103560001F910F91FF90DF90CF90BF90AF90089583
:103570000E94D01B8823E1F2F82EEFCFF601819153
:103580006F018093F1002197FFEFAF1ABF0ACECFF2
:10359000FC019B018091C2029091C302861797079C
:1035A00018F0672B61F0C90140E0009771F44111F8
:1035B0000CC08091E80082FF35C080E008958091C2
:1035C000E8008E778093E800EECF2091BB022223A3
:1035D000A9F12530A9F12091E80023FD2DC020910B
:1035E000E80022FDE6CF2091E80020FFDECF3091F9
:1035F000F3002091F200009719F02830310558F0BF
:1036000041E02830310509F040E02091E8002E77B4
:103610002093E800CACF41914093F10001972F5FBA
:103620003F4FE9CF8091BB02882341F0853041F0C4
:103630008091E80083FFBDCF81E0089582E0089586
:1036400083E00895FC019B018091C2029091C30226
:103650008617970718F0672B61F0C90140E00097C3
:1036600071F441110CC08091E80082FF36C080E007
:1036700008958091E8008E778093E800EECF209146
:10368000BB022223B1F12530B1F12091E80023FDE6
:103690002EC02091E80022FDE6CF2091E80020FF17
:1036A000DECF3091F3002091F200009719F028301E
:1036B000310558F041E02830310509F040E0209113
:1036C000E8002E772093E800CACF44914093F100A0
:1036D000319601972F5F3F4FE8CF8091BB0288233F
:1036E00041F0853041F08091E80083FFBCCF81E05C
:1036F000089582E0089583E00895982F973028F088
:103700008F708093E90081E008959093E900242F61
:10371000762F50E0981731F07091EC002091ED0079
:103720005091F00021FD02C09F5FE8CF3091EB0087
:103730003E7F3093EB003091ED003D7F3093ED0004
:103740003091EB0031603093EB007093EC002093EC
:10375000ED005093F0002091EE0027FDE5CF80E0D2
:1037600008958091BC0287FF13C08091E80082FF1A
:1037700006C08091E8008B778093E80004C08091B8
:10378000BB028111F2CF08958091BB028823D9F347
:103790008091E80080FFF8CF8091E8008E77ECCF31
:1037A0002091E4003091E50095E6A9018091EC00BC
:1037B0008170882331F08091E80080FF06C080E0AE
:1037C00008952091E80022FD1BC08091BB02882350
:1037D00091F0853091F08091EB0085FD10C0209133
:1037E000E4003091E5004217530701F39150911125
:1037F000DCCF84E0089582E0089583E0089581E0BD
:1038000008950E94701C0E94781CE0EEF0E0808118
:1038100081608083E8EDF0E080818F77808319BC40
:10382000A7EDB0E08C918E7F8C9380818F7E80831A
:103830001092BA0208950F931F93CF93DF930E94C3
:10384000701C0E94781CC8EDD0E088818F77888337
:1038500088818068888388818F7D888319BC1092D5
:10386000BB021092B7021092B9021092B80200EE99
:1038700010E0F80180818B7F80838881816088835C
:1038800042E060E080E00E947D1BE1EEF0E080819C
:103890008E7F8083E2EEF0E0808181608083808192
:1038A00088608083F80180818E7F80838881806139
:1038B0008883DF91CF911F910F910895E8EDF0E09B
:1038C00080818F7E8083E7EDF0E08081816080835E
:1038D00084E082BF81E08093BA020E941B1C08959D
:1038E000E8EDF0E080818E7F80831092E200089501
:1038F0001092DA001092E10008951F920F920FB615
:103900000F9211242F933F934F935F936F937F9365
:103910008F939F93AF93BF93EF93FF938091E100B9
:1039200082FF0BC08091E20082FF07C08091E1001E
:103930008B7F8093E1000E94E01E8091DA0080FF7F
:1039400019C08091D80080FF15C08091DA008E7F69
:103950008093DA008091D90080FF94C080E189BD16
:1039600082E189BD09B400FEFDCF81E08093BB02F6
:103970000E94C5188091E10080FF19C08091E2008B
:1039800080FF15C08091E2008E7F8093E2008091DD
:10399000E20080618093E2008091D8008062809391
:1039A000D80019BC85E08093BB020E94D918809191
:1039B000E10084FF29C08091E20084FF25C080E1FE
:1039C00089BD82E189BD09B400FEFDCF8091D80098
:1039D0008F7D8093D8008091E1008F7E8093E100FD
:1039E0008091E2008F7E8093E2008091E20081600E
:1039F0008093E2008091B702882309F449C084E0F3
:103A00008093BB020E94E2188091E10083FF29C0ED
:103A10008091E20083FF25C08091E100877F809341
:103A2000E10082E08093BB021092B7028091E10036
:103A30008E7F8093E1008091E2008E7F8093E20090
:103A40008091E20080618093E20042E060E080E0EB
:103A50000E947D1B8091F00088608093F0000E949E
:103A6000D618FF91EF91BF91AF919F918F917F9168
:103A70006F915F914F913F912F910F900FBE0F90DB
:103A80001F90189519BC1092BB020E94D31872CFD8
:103A90008091E30087FF02C083E0B2CF81E0B0CF26
:103AA0001F920F920FB60F921124FF920F931F9344
:103AB0002F933F934F935F936F937F938F939F9336
:103AC000AF93BF93CF93DF93EF93FF9309EE10E093
:103AD000F8018081C091EC00C795CC27C7958F7005
:103AE000FC2EF82A1082C0EFD0E08881877F88837F
:103AF00078940E94991DF8011082888188608883DB
:103B0000CF2DCF70C083FF91EF91DF91CF91BF9107
:103B1000AF919F918F917F916F915F914F913F9165
:103B20002F911F910F91FF900F900FBE0F901F903C
:103B30001895AAE2B0E0EFE9FDE10C94241F8CEBAC
:103B400092E0FC0101962091F100208322E0843C68
:103B50009207B9F70E9402198091E80083FF38C0EC
:103B60008091BC029091BD029A3090F5E92FF0E06F
:103B7000EF5EFF4D0C940F1F803889F0823841F5BD
:103B80008091C0028F70873018F58093E900809192
:103B9000EB0085FB882780F91092E90006C0809130
:103BA000B8029091B902911182609091E800977FDC
:103BB0009093E8008093F1001092F1008091E8006A
:103BC0008E7723C0811116C08091BE02813011F121
:103BD0008091E80083FF0AC08091E800877F80938E
:103BE000E8008091EB0080628093EB00AA96E3E00E
:103BF0000C94401F823061F78091BE02882389F0C7
:103C00001092E9008091E800877F8093E8000E948D
:103C1000B11BDECF81E0933009F080E08093B902E0
:103C2000EFCF8091C0028F702FEF280F263080F6E3
:103C30008093E9002091EB0020FFE2CF933031F434
:103C40008091EB0080628093EB00DACF9091EB00E3
:103C500090619093EB0021E030E0A90102C0440F95
:103C6000551F8A95E2F74093EA001092EA0080918E
:103C7000EB008860E8CF8111ABCF1091BE021F77B7
:103C80008091E3008078812B8093E3008091E800AD
:103C9000877F8093E8000E94B11B8091E80080FF3D
:103CA000FCCF8091E30080688093E30083E01111F2
:103CB00001C082E08093BB028BCF8058823008F035
:103CC00087CF8091BE029091BF028C3D53E0950753
:103CD00099F583E08A838AE289834FB7F894DE01FD
:103CE000139620E03EE051E2E32FF0E050935700BE
:103CF000849120FF03C082958F703F5F8F708A3060
:103D0000C8F0895C90E08D939D932F5F243161F71B
:103D10004FBF8091E800877F8093E8006AE270E0FF
:103D2000CE0101960E94C81A8091E8008B7780939B
:103D3000E8004ECF805DE6CF6091C0027091C10275
:103D4000AE014F5F5F4F0E94021ABC01892B09F43C
:103D50003FCF8091E800877F8093E80089819A8136
:103D60000E94221BE1CF803809F032CF8091E80019
:103D7000877F8093E8008091B7028093F1001ECF87
:103D8000811126CF9091BE02923008F021CF809110
:103D9000E800877F8093E8009093B7020E94B11BF0
:103DA0008091B702882331F084E08093BB020E94A7
:103DB000ED180ECF8091E30087FDF6CF81E0F5CFBF
:103DC0000895CF938091BB02882399F08091E900F8
:103DD000C091EC00C795CC27C7958F70C82B109267
:103DE000E9008091E80083FD0E94991DCF70C09387
:103DF000E900CF91089597FB072E16F4009407D0A1
:103E000077FD09D00E944C1F07FC05D03EF4909529
:103E100081959F4F0895709561957F4F0895EE0F9E
:103E2000FF1F0590F491E02D09942F923F924F923D
:103E30005F926F927F928F929F92AF92BF92CF923A
:103E4000DF92EF92FF920F931F93CF93DF93CDB743
:103E5000DEB7CA1BDB0B0FB6F894DEBF0FBECDBFBB
:103E600009942A88398848885F846E847D848C848C
:103E70009B84AA84B984C884DF80EE80FD800C8195
:103E80001B81AA81B981CE0FD11D0FB6F894DEBF78
:103E90000FBECDBFED010895AA1BBB1B51E107C0AA
:103EA000AA1FBB1FA617B70710F0A61BB70B881FCA
:103EB000991F5A95A9F780959095BC01CD01089559
:103EC000FB01DC0104C08D910190801921F4415067
:103ED0005040C8F7881B990B0895FB01DC0102C014
:103EE00001900D9241505040D8F70895F999FECFB6
:103EF00092BD81BDF89A992780B50895A8E1B0E0F8
:103F000042E050E00C94BA1FDC01A40FB51F4150F1
:103F1000504048F0CB01840F951F2E910E94951FB1
:103F200041505040D0F70895262FF999FECF92BD09
:103F300081BDF89A019700B4021639F01FBA20BD6E
:103F40000FB6F894FA9AF99A0FBE08950396272FA0
:103F50000E94951F0E94941F252F0E94951F242FB9
:103F60000C94951F0196272F0E94951F0C94941F67
:103F7000DC01CB01FC01F999FECF06C0F2BDE1BD29
:103F8000F89A319600B40D9241505040B8F7089518
:103F9000F894FFCF4904490490049004F5041205F5
:103FA0007804780417058E059F059F05D0114412EB
:103FB000D811A211A611DC11AA11E011EC11B61151
:103FC0003D12BA11F011BE11F4111C12C211F811F8
:103FD0002312C811FE110612AE11E411B211E8113C
:103FE000CC11021212122C123B129C11D4114B1242
:103FF0000A130D1313132813281328132813281337
:1040000028132813281316131B131F1325133613F5
:104010003C13401375157B1565156F1581158715B4
:104020008D15BC1DE21DE81DE21DE81D3B1E5D1E39
:06403000E81DB31EC01ED6
:1040360038025802280850011E0A14017218AE18D8
:10404600A718A018991801E200E900EA00B500B621
:1040560000B700CD008301CC008A019201940121B2
:1040660002230224022502260227022A02B300B4F2
:10407600006F0070009F01CB019F02A002E200E9E1
:1040860000EA00B500B600B700CD008301CC008A77
:10409600019201940121022302240225022602270D
:1040A600022A02B300B4006F0070009F01CB019F8B
:1040B60002A0029496973435366766F7F6F5F4F162
:0840C600F0C691929395900061
:00000001FF
